{
  "contractName": "kyc",
  "abi": [
    {
      "anonymous": false,
      "inputs": [
        {
          "indexed": false,
          "name": "uname",
          "type": "string"
        }
      ],
      "name": "addBankEvent",
      "type": "event",
      "signature": "0xe0bfb40a6a772f6cac73ab5c02b781bb40e1a4fea7bd84066a7a430cc224d0bd"
    },
    {
      "constant": false,
      "inputs": [
        {
          "name": "Uname",
          "type": "string"
        },
        {
          "name": "bankAddress",
          "type": "address"
        }
      ],
      "name": "ifAllowed",
      "outputs": [
        {
          "name": "",
          "type": "bool"
        }
      ],
      "payable": true,
      "stateMutability": "payable",
      "type": "function",
      "signature": "0x1cfb7c9a"
    },
    {
      "constant": false,
      "inputs": [
        {
          "name": "Uname",
          "type": "string"
        },
        {
          "name": "ind",
          "type": "uint256"
        }
      ],
      "name": "getBankRequests1",
      "outputs": [
        {
          "name": "",
          "type": "address"
        }
      ],
      "payable": true,
      "stateMutability": "payable",
      "type": "function",
      "signature": "0x72f0b56b"
    },
    {
      "constant": false,
      "inputs": [
        {
          "name": "Uname",
          "type": "string"
        },
        {
          "name": "ind",
          "type": "uint256"
        }
      ],
      "name": "getBankRequests",
      "outputs": [
        {
          "name": "",
          "type": "address"
        }
      ],
      "payable": true,
      "stateMutability": "payable",
      "type": "function",
      "signature": "0xc71029e1"
    },
    {
      "constant": false,
      "inputs": [
        {
          "name": "Uname",
          "type": "string"
        },
        {
          "name": "ind",
          "type": "uint256"
        }
      ],
      "name": "getBankRequestsDetails",
      "outputs": [
        {
          "name": "",
          "type": "address"
        },
        {
          "name": "",
          "type": "bool"
        }
      ],
      "payable": true,
      "stateMutability": "payable",
      "type": "function",
      "signature": "0x813e1e04"
    },
    {
      "constant": false,
      "inputs": [
        {
          "name": "Uname",
          "type": "string"
        },
        {
          "name": "ind",
          "type": "uint256"
        }
      ],
      "name": "getBankRequestsCount",
      "outputs": [
        {
          "name": "",
          "type": "uint256"
        }
      ],
      "payable": true,
      "stateMutability": "payable",
      "type": "function",
      "signature": "0xeac918e5"
    },
    {
      "constant": false,
      "inputs": [
        {
          "name": "Uname",
          "type": "string"
        },
        {
          "name": "bankAddress",
          "type": "address"
        }
      ],
      "name": "addRequest",
      "outputs": [
        {
          "name": "",
          "type": "bool"
        }
      ],
      "payable": true,
      "stateMutability": "payable",
      "type": "function",
      "signature": "0x8873704c"
    },
    {
      "constant": false,
      "inputs": [
        {
          "name": "Uname",
          "type": "string"
        },
        {
          "name": "bankAddress",
          "type": "address"
        },
        {
          "name": "ifallowed",
          "type": "bool"
        }
      ],
      "name": "allowBank",
      "outputs": [],
      "payable": true,
      "stateMutability": "payable",
      "type": "function",
      "signature": "0x39b83b68"
    },
    {
      "constant": true,
      "inputs": [],
      "name": "isPartOfOrg",
      "outputs": [
        {
          "name": "",
          "type": "bool"
        }
      ],
      "payable": false,
      "stateMutability": "view",
      "type": "function",
      "signature": "0xd06760da"
    },
    {
      "constant": false,
      "inputs": [
        {
          "name": "uname",
          "type": "string"
        },
        {
          "name": "eth",
          "type": "address"
        },
        {
          "name": "regNum",
          "type": "string"
        }
      ],
      "name": "addBank",
      "outputs": [
        {
          "name": "",
          "type": "uint256"
        }
      ],
      "payable": true,
      "stateMutability": "payable",
      "type": "function",
      "signature": "0xccfa8e71"
    },
    {
      "constant": false,
      "inputs": [
        {
          "name": "eth",
          "type": "address"
        }
      ],
      "name": "removeBank",
      "outputs": [
        {
          "name": "",
          "type": "uint256"
        }
      ],
      "payable": true,
      "stateMutability": "payable",
      "type": "function",
      "signature": "0x9649650c"
    },
    {
      "constant": false,
      "inputs": [
        {
          "name": "Uname",
          "type": "string"
        },
        {
          "name": "DataHash",
          "type": "string"
        }
      ],
      "name": "addCustomer",
      "outputs": [
        {
          "name": "",
          "type": "uint256"
        }
      ],
      "payable": true,
      "stateMutability": "payable",
      "type": "function",
      "signature": "0x3190abc0"
    },
    {
      "constant": false,
      "inputs": [
        {
          "name": "Uname",
          "type": "string"
        }
      ],
      "name": "removeCustomer",
      "outputs": [
        {
          "name": "",
          "type": "uint256"
        }
      ],
      "payable": true,
      "stateMutability": "payable",
      "type": "function",
      "signature": "0xfc55ea9d"
    },
    {
      "constant": false,
      "inputs": [
        {
          "name": "Uname",
          "type": "string"
        },
        {
          "name": "DataHash",
          "type": "string"
        }
      ],
      "name": "modifyCustomer",
      "outputs": [
        {
          "name": "",
          "type": "uint256"
        }
      ],
      "payable": true,
      "stateMutability": "payable",
      "type": "function",
      "signature": "0xf72860ca"
    },
    {
      "constant": false,
      "inputs": [
        {
          "name": "Uname",
          "type": "string"
        }
      ],
      "name": "viewCustomer",
      "outputs": [
        {
          "name": "",
          "type": "string"
        }
      ],
      "payable": true,
      "stateMutability": "payable",
      "type": "function",
      "signature": "0x107925bb"
    },
    {
      "constant": false,
      "inputs": [
        {
          "name": "Uname",
          "type": "string"
        },
        {
          "name": "ifIncrease",
          "type": "bool"
        }
      ],
      "name": "updateRatingCustomer",
      "outputs": [
        {
          "name": "",
          "type": "uint256"
        }
      ],
      "payable": true,
      "stateMutability": "payable",
      "type": "function",
      "signature": "0xbbd4edb1"
    },
    {
      "constant": false,
      "inputs": [
        {
          "name": "bankAddress",
          "type": "address"
        },
        {
          "name": "ifAdded",
          "type": "bool"
        }
      ],
      "name": "updateRating",
      "outputs": [
        {
          "name": "",
          "type": "uint256"
        }
      ],
      "payable": true,
      "stateMutability": "payable",
      "type": "function",
      "signature": "0x7d2f42c3"
    },
    {
      "constant": true,
      "inputs": [
        {
          "name": "Uname",
          "type": "string"
        },
        {
          "name": "password",
          "type": "address"
        }
      ],
      "name": "checkBank",
      "outputs": [
        {
          "name": "",
          "type": "string"
        }
      ],
      "payable": false,
      "stateMutability": "view",
      "type": "function",
      "signature": "0xc17d8720"
    },
    {
      "constant": true,
      "inputs": [
        {
          "name": "Uname",
          "type": "string"
        },
        {
          "name": "password",
          "type": "string"
        }
      ],
      "name": "checkCustomer",
      "outputs": [
        {
          "name": "",
          "type": "bool"
        }
      ],
      "payable": false,
      "stateMutability": "view",
      "type": "function",
      "signature": "0x4b726f61"
    },
    {
      "constant": false,
      "inputs": [
        {
          "name": "Uname",
          "type": "string"
        },
        {
          "name": "password",
          "type": "string"
        }
      ],
      "name": "setPassword",
      "outputs": [
        {
          "name": "",
          "type": "bool"
        }
      ],
      "payable": true,
      "stateMutability": "payable",
      "type": "function",
      "signature": "0xca386496"
    },
    {
      "constant": false,
      "inputs": [
        {
          "name": "ethAcc",
          "type": "address"
        }
      ],
      "name": "getBankName",
      "outputs": [
        {
          "name": "",
          "type": "string"
        }
      ],
      "payable": true,
      "stateMutability": "payable",
      "type": "function",
      "signature": "0x01da7b31"
    },
    {
      "constant": false,
      "inputs": [
        {
          "name": "uname",
          "type": "string"
        }
      ],
      "name": "getBankEth",
      "outputs": [
        {
          "name": "",
          "type": "address"
        }
      ],
      "payable": true,
      "stateMutability": "payable",
      "type": "function",
      "signature": "0x5b3de1c8"
    },
    {
      "constant": false,
      "inputs": [
        {
          "name": "Uname",
          "type": "string"
        }
      ],
      "name": "getCustomerBankName",
      "outputs": [
        {
          "name": "",
          "type": "string"
        }
      ],
      "payable": true,
      "stateMutability": "payable",
      "type": "function",
      "signature": "0xf9dc0793"
    },
    {
      "constant": false,
      "inputs": [
        {
          "name": "ethAcc",
          "type": "address"
        }
      ],
      "name": "getBankReg",
      "outputs": [
        {
          "name": "",
          "type": "string"
        }
      ],
      "payable": true,
      "stateMutability": "payable",
      "type": "function",
      "signature": "0x9ac3fce6"
    },
    {
      "constant": false,
      "inputs": [
        {
          "name": "ethAcc",
          "type": "address"
        }
      ],
      "name": "getBankKYC",
      "outputs": [
        {
          "name": "",
          "type": "uint256"
        }
      ],
      "payable": true,
      "stateMutability": "payable",
      "type": "function",
      "signature": "0x4ec2b417"
    },
    {
      "constant": false,
      "inputs": [
        {
          "name": "ethAcc",
          "type": "address"
        }
      ],
      "name": "getBankRating",
      "outputs": [
        {
          "name": "",
          "type": "uint256"
        }
      ],
      "payable": true,
      "stateMutability": "payable",
      "type": "function",
      "signature": "0xb8144a72"
    },
    {
      "constant": false,
      "inputs": [
        {
          "name": "Uname",
          "type": "string"
        }
      ],
      "name": "getCustomerBankRating",
      "outputs": [
        {
          "name": "",
          "type": "uint256"
        }
      ],
      "payable": true,
      "stateMutability": "payable",
      "type": "function",
      "signature": "0xe979bac1"
    },
    {
      "constant": false,
      "inputs": [
        {
          "name": "Uname",
          "type": "string"
        }
      ],
      "name": "getCustomerRating",
      "outputs": [
        {
          "name": "",
          "type": "uint256"
        }
      ],
      "payable": true,
      "stateMutability": "payable",
      "type": "function",
      "signature": "0x8eafe0f0"
    }
  ],
  "bytecode": "0x608060405234801561001057600080fd5b5061393f806100206000396000f30060806040526004361061015f576000357c0100000000000000000000000000000000000000000000000000000000900463ffffffff16806301da7b3114610164578063107925bb146102135780631cfb7c9a146102e85780633190abc01461037c57806339b83b68146104325780634b726f61146104ba5780634ec2b417146105815780635b3de1c8146105cb57806372f0b56b146106675780637d2f42c31461070d578063813e1e04146107635780638873704c146108145780638eafe0f0146108a85780639649650c146109185780639ac3fce614610962578063b8144a7214610a11578063bbd4edb114610a5b578063c17d872014610ad7578063c71029e114610bd9578063ca38649614610c7f578063ccfa8e7114610d39578063d06760da14610e0f578063e979bac114610e3e578063eac918e514610eae578063f72860ca14610f28578063f9dc079314610fde578063fc55ea9d146110b3575b600080fd5b610198600480360381019080803573ffffffffffffffffffffffffffffffffffffffff169060200190929190505050611123565b6040518080602001828103825283818151815260200191508051906020019080838360005b838110156101d85780820151818401526020810190506101bd565b50505050905090810190601f1680156102055780820380516001836020036101000a031916815260200191505b509250505060405180910390f35b61026d600480360381019080803590602001908201803590602001908080601f01602080910402602001604051908101604052809392919081815260200183838082843782019150505050505091929192905050506112b6565b6040518080602001828103825283818151815260200191508051906020019080838360005b838110156102ad578082015181840152602081019050610292565b50505050905090810190601f1680156102da5780820380516001836020036101000a031916815260200191505b509250505060405180910390f35b610362600480360381019080803590602001908201803590602001908080601f0160208091040260200160405190810160405280939291908181526020018383808284378201915050505050509192919290803573ffffffffffffffffffffffffffffffffffffffff16906020019092919050505061144f565b604051808215151515815260200191505060405180910390f35b61041c600480360381019080803590602001908201803590602001908080601f0160208091040260200160405190810160405280939291908181526020018383808284378201915050505050509192919290803590602001908201803590602001908080601f016020809104026020016040519081016040528093929190818152602001838380828437820191505050505050919291929050505061155f565b6040518082815260200191505060405180910390f35b6104b8600480360381019080803590602001908201803590602001908080601f0160208091040260200160405190810160405280939291908181526020018383808284378201915050505050509192919290803573ffffffffffffffffffffffffffffffffffffffff169060200190929190803515159060200190929190505050611766565b005b3480156104c657600080fd5b50610567600480360381019080803590602001908201803590602001908080601f0160208091040260200160405190810160405280939291908181526020018383808284378201915050505050509192919290803590602001908201803590602001908080601f01602080910402602001604051908101604052809392919081815260200183838082843782019150505050505091929192905050506119b0565b604051808215151515815260200191505060405180910390f35b6105b5600480360381019080803573ffffffffffffffffffffffffffffffffffffffff169060200190929190505050611a7b565b6040518082815260200191505060405180910390f35b610625600480360381019080803590602001908201803590602001908080601f0160208091040260200160405190810160405280939291908181526020018383808284378201915050505050509192919290505050611b42565b604051808273ffffffffffffffffffffffffffffffffffffffff1673ffffffffffffffffffffffffffffffffffffffff16815260200191505060405180910390f35b6106cb600480360381019080803590602001908201803590602001908080601f016020809104026020016040519081016040528093929190818152602001838380828437820191505050505050919291929080359060200190929190505050611bf6565b604051808273ffffffffffffffffffffffffffffffffffffffff1673ffffffffffffffffffffffffffffffffffffffff16815260200191505060405180910390f35b61074d600480360381019080803573ffffffffffffffffffffffffffffffffffffffff169060200190929190803515159060200190929190505050611d01565b6040518082815260200191505060405180910390f35b6107c7600480360381019080803590602001908201803590602001908080601f016020809104026020016040519081016040528093929190818152602001838380828437820191505050505050919291929080359060200190929190505050611f3e565b604051808373ffffffffffffffffffffffffffffffffffffffff1673ffffffffffffffffffffffffffffffffffffffff168152602001821515151581526020019250505060405180910390f35b61088e600480360381019080803590602001908201803590602001908080601f0160208091040260200160405190810160405280939291908181526020018383808284378201915050505050509192919290803573ffffffffffffffffffffffffffffffffffffffff169060200190929190505050612046565b604051808215151515815260200191505060405180910390f35b610902600480360381019080803590602001908201803590602001908080601f0160208091040260200160405190810160405280939291908181526020018383808284378201915050505050509192919290505050612216565b6040518082815260200191505060405180910390f35b61094c600480360381019080803573ffffffffffffffffffffffffffffffffffffffff169060200190929190505050612297565b6040518082815260200191505060405180910390f35b610996600480360381019080803573ffffffffffffffffffffffffffffffffffffffff169060200190929190505050612498565b6040518080602001828103825283818151815260200191508051906020019080838360005b838110156109d65780820151818401526020810190506109bb565b50505050905090810190601f168015610a035780820380516001836020036101000a031916815260200191505b509250505060405180910390f35b610a45600480360381019080803573ffffffffffffffffffffffffffffffffffffffff16906020019092919050505061262b565b6040518082815260200191505060405180910390f35b610ac1600480360381019080803590602001908201803590602001908080601f01602080910402602001604051908101604052809392919081815260200183838082843782019150505050505091929192908035151590602001909291905050506126f2565b6040518082815260200191505060405180910390f35b348015610ae357600080fd5b50610b5e600480360381019080803590602001908201803590602001908080601f0160208091040260200160405190810160405280939291908181526020018383808284378201915050505050509192919290803573ffffffffffffffffffffffffffffffffffffffff169060200190929190505050612919565b6040518080602001828103825283818151815260200191508051906020019080838360005b83811015610b9e578082015181840152602081019050610b83565b50505050905090810190601f168015610bcb5780820380516001836020036101000a031916815260200191505b509250505060405180910390f35b610c3d600480360381019080803590602001908201803590602001908080601f016020809104026020016040519081016040528093929190818152602001838380828437820191505050505050919291929080359060200190929190505050612a5b565b604051808273ffffffffffffffffffffffffffffffffffffffff1673ffffffffffffffffffffffffffffffffffffffff16815260200191505060405180910390f35b610d1f600480360381019080803590602001908201803590602001908080601f0160208091040260200160405190810160405280939291908181526020018383808284378201915050505050509192919290803590602001908201803590602001908080601f0160208091040260200160405190810160405280939291908181526020018383808284378201915050505050509192919290505050612b7f565b604051808215151515815260200191505060405180910390f35b610df9600480360381019080803590602001908201803590602001908080601f0160208091040260200160405190810160405280939291908181526020018383808284378201915050505050509192919290803573ffffffffffffffffffffffffffffffffffffffff169060200190929190803590602001908201803590602001908080601f0160208091040260200160405190810160405280939291908181526020018383808284378201915050505050509192919290505050612c7d565b6040518082815260200191505060405180910390f35b348015610e1b57600080fd5b50610e24612e5d565b604051808215151515815260200191505060405180910390f35b610e98600480360381019080803590602001908201803590602001908080601f0160208091040260200160405190810160405280939291908181526020018383808284378201915050505050509192919290505050612f03565b6040518082815260200191505060405180910390f35b610f12600480360381019080803590602001908201803590602001908080601f016020809104026020016040519081016040528093929190818152602001838380828437820191505050505050919291929080359060200190929190505050612fa8565b6040518082815260200191505060405180910390f35b610fc8600480360381019080803590602001908201803590602001908080601f0160208091040260200160405190810160405280939291908181526020018383808284378201915050505050509192919290803590602001908201803590602001908080601f0160208091040260200160405190810160405280939291908181526020018383808284378201915050505050509192919290505050612fb8565b6040518082815260200191505060405180910390f35b611038600480360381019080803590602001908201803590602001908080601f01602080910402602001604051908101604052809392919081815260200183838082843782019150505050505091929192905050506130c6565b6040518080602001828103825283818151815260200191508051906020019080838360005b8381101561107857808201518184015260208101905061105d565b50505050905090810190601f1680156110a55780820380516001836020036101000a031916815260200191505b509250505060405180910390f35b61110d600480360381019080803590602001908201803590602001908080601f016020809104026020016040519081016040528093929190818152602001838380828437820191505050505050919291929050505061316b565b6040518082815260200191505060405180910390f35b606060008090505b600180549050811015611277578273ffffffffffffffffffffffffffffffffffffffff1660018281548110151561115e57fe5b906000526020600020906005020160010160009054906101000a900473ffffffffffffffffffffffffffffffffffffffff1673ffffffffffffffffffffffffffffffffffffffff16141561126c576001818154811015156111bb57fe5b90600052602060002090600502016000018054600181600116156101000203166002900480601f0160208091040260200160405190810160405280929190818152602001828054600181600116156101000203166002900480156112605780601f1061123557610100808354040283529160200191611260565b820191906000526020600020905b81548152906001019060200180831161124357829003601f168201915b505050505091506112b0565b80600101905061112b565b6040805190810160405280600481526020017f6e756c6c0000000000000000000000000000000000000000000000000000000081525091505b50919050565b606060006112c2612e5d565b1515611305576040805190810160405280600e81526020017f4163636573732064656e696564210000000000000000000000000000000000008152509150611449565b600090505b6000805490508110156114105761134060008281548110151561132957fe5b9060005260206000209060060201600001846133a0565b156114055760008181548110151561135457fe5b90600052602060002090600602016001018054600181600116156101000203166002900480601f0160208091040260200160405190810160405280929190818152602001828054600181600116156101000203166002900480156113f95780601f106113ce576101008083540402835291602001916113f9565b820191906000526020600020905b8154815290600101906020018083116113dc57829003601f168201915b50505050509150611449565b80600101905061130a565b6040805190810160405280601f81526020017f437573746f6d6572206e6f7420666f756e6420696e206461746162617365210081525091505b50919050565b600080600090505b6002805490508110156115535761148d60028281548110151561147657fe5b9060005260206000209060020201600001856133a0565b801561150457508273ffffffffffffffffffffffffffffffffffffffff166002828154811015156114ba57fe5b906000526020600020906002020160010160009054906101000a900473ffffffffffffffffffffffffffffffffffffffff1673ffffffffffffffffffffffffffffffffffffffff16145b801561153a575060028181548110151561151a57fe5b906000526020600020906002020160010160149054906101000a900460ff165b156115485760019150611558565b806001019050611457565b600091505b5092915050565b60008061156a612e5d565b1515611579576007915061175f565b600090505b6000805490508110156115cd576115b460008281548110151561159d57fe5b9060005260206000209060060201600001856133a0565b156115c2576002915061175f565b80600101905061157e565b600080548091906001016115e19190613523565b50600160008054905010156115f9576001915061175f565b60c06040519081016040528085815260200184815260200160648152602001600081526020013373ffffffffffffffffffffffffffffffffffffffff1681526020016040805190810160405280600481526020017f6e756c6c00000000000000000000000000000000000000000000000000000000815250815250600060016000805490500381548110151561168b57fe5b906000526020600020906006020160008201518160000190805190602001906116b5929190613555565b5060208201518160010190805190602001906116d2929190613555565b50604082015181600201556060820151816003015560808201518160040160006101000a81548173ffffffffffffffffffffffffffffffffffffffff021916908373ffffffffffffffffffffffffffffffffffffffff16021790555060a082015181600501908051906020019061174a929190613555565b50905050611759336001611d01565b50600091505b5092915050565b600080600091505b6002805490508210156119a8576117a460028381548110151561178d57fe5b9060005260206000209060020201600001866133a0565b801561181b57508373ffffffffffffffffffffffffffffffffffffffff166002838154811015156117d157fe5b906000526020600020906002020160010160009054906101000a900473ffffffffffffffffffffffffffffffffffffffff1673ffffffffffffffffffffffffffffffffffffffff16145b1561199d57821561186457600160028381548110151561183757fe5b906000526020600020906002020160010160146101000a81548160ff021916908315150217905550611998565b8190505b6001600280549050038110156119815760026001820181548110151561188a57fe5b90600052602060002090600202016002828154811015156118a757fe5b9060005260206000209060020201600082018160000190805460018160011615610100020316600290046118dc9291906135d5565b506001820160009054906101000a900473ffffffffffffffffffffffffffffffffffffffff168160010160006101000a81548173ffffffffffffffffffffffffffffffffffffffff021916908373ffffffffffffffffffffffffffffffffffffffff1602179055506001820160149054906101000a900460ff168160010160146101000a81548160ff0219169083151502179055509050508080600101915050611868565b6002805480919060019003611996919061365c565b505b6119a9565b81600101915061176e565b5b5050505050565b600080600090505b600080549050811015611a6f576119ee6000828154811015156119d757fe5b9060005260206000209060060201600001856133a0565b8015611a1f5750611a1e600082815481101515611a0757fe5b9060005260206000209060060201600501846133a0565b5b15611a2d5760019150611a74565b611a56600082815481101515611a3f57fe5b9060005260206000209060060201600001856133a0565b15611a645760009150611a74565b8060010190506119b8565b600091505b5092915050565b600080600090505b600180549050811015611b37578273ffffffffffffffffffffffffffffffffffffffff16600182815481101515611ab657fe5b906000526020600020906005020160010160009054906101000a900473ffffffffffffffffffffffffffffffffffffffff1673ffffffffffffffffffffffffffffffffffffffff161415611b2c57600181815481101515611b1357fe5b9060005260206000209060050201600301549150611b3c565b806001019050611a83565b600091505b50919050565b600080600090505b600180549050811015611bd857611b80600182815481101515611b6957fe5b9060005260206000209060050201600001846133a0565b15611bcd57600181815481101515611b9457fe5b906000526020600020906005020160010160009054906101000a900473ffffffffffffffffffffffffffffffffffffffff169150611bf0565b806001019050611b4a565b7314e041521a40e32ed88b22c0f32469f5406d757a91505b50919050565b6000806000809150600090505b600280549050811015611ce157611c39600282815481101515611c2257fe5b9060005260206000209060020201600001866133a0565b8015611c4457508382145b8015611c81575060001515600282815481101515611c5e57fe5b906000526020600020906002020160010160149054906101000a900460ff161515145b15611cce57600281815481101515611c9557fe5b906000526020600020906002020160010160009054906101000a900473ffffffffffffffffffffffffffffffffffffffff169250611cf9565b8180600101925050806001019050611c03565b7314e041521a40e32ed88b22c0f32469f5406d757a92505b505092915050565b600080600090505b600180549050811015611f32578373ffffffffffffffffffffffffffffffffffffffff16600182815481101515611d3c57fe5b906000526020600020906005020160010160009054906101000a900473ffffffffffffffffffffffffffffffffffffffff1673ffffffffffffffffffffffffffffffffffffffff161415611f27578215611e7157600181815481101515611d9f57fe5b906000526020600020906005020160030160008154809291906001019190505550600181815481101515611dcf57fe5b9060005260206000209060050201600301546064811515611dec57fe5b04600182815481101515611dfc57fe5b9060005260206000209060050201600201600082825401925050819055506101f4600182815481101515611e2c57fe5b9060005260206000209060050201600201541115611e6c576101f4600182815481101515611e5657fe5b9060005260206000209060050201600201819055505b611f1e565b60018082815481101515611e8157fe5b906000526020600020906005020160030154016064811515611e9f57fe5b04600182815481101515611eaf57fe5b9060005260206000209060050201600201600082825403925050819055506000600182815481101515611ede57fe5b9060005260206000209060050201600201541015611f1d576000600182815481101515611f0757fe5b9060005260206000209060050201600201819055505b5b60009150611f37565b806001019050611d09565b600191505b5092915050565b60008060008060009150600090505b60028054905081101561201e57611f83600282815481101515611f6c57fe5b9060005260206000209060020201600001876133a0565b8015611f8e57508482145b1561200b57600281815481101515611fa257fe5b906000526020600020906002020160010160009054906101000a900473ffffffffffffffffffffffffffffffffffffffff16600282815481101515611fe357fe5b906000526020600020906002020160010160149054906101000a900460ff169350935061203d565b8180600101925050806001019050611f4d565b7314e041521a40e32ed88b22c0f32469f5406d757a6001819150935093505b50509250929050565b600080600090505b6002805490508110156121145761208460028281548110151561206d57fe5b9060005260206000209060020201600001856133a0565b80156120fb57508273ffffffffffffffffffffffffffffffffffffffff166002828154811015156120b157fe5b906000526020600020906002020160010160009054906101000a900473ffffffffffffffffffffffffffffffffffffffff1673ffffffffffffffffffffffffffffffffffffffff16145b15612109576000915061220f565b80600101905061204e565b60028054809190600101612128919061365c565b506060604051908101604052808581526020018473ffffffffffffffffffffffffffffffffffffffff16815260200160001515815250600260016002805490500381548110151561217557fe5b9060005260206000209060020201600082015181600001908051906020019061219f929190613555565b5060208201518160010160006101000a81548173ffffffffffffffffffffffffffffffffffffffff021916908373ffffffffffffffffffffffffffffffffffffffff16021790555060408201518160010160146101000a81548160ff021916908315150217905550905050600191505b5092915050565b600080600090505b60008054905081101561228c5761225460008281548110151561223d57fe5b9060005260206000209060060201600001846133a0565b156122815760008181548110151561226857fe5b9060005260206000209060060201600201549150612291565b80600101905061221e565b600091505b50919050565b60008060006122a4612e5d565b15156122b35760079250612491565b600091505b60018054905082101561248c578373ffffffffffffffffffffffffffffffffffffffff166001838154811015156122eb57fe5b906000526020600020906005020160010160009054906101000a900473ffffffffffffffffffffffffffffffffffffffff1673ffffffffffffffffffffffffffffffffffffffff161415612481576001820190505b6001805490508110156124625760018281548110151561235c57fe5b9060005260206000209060050201600180840381548110151561237b57fe5b9060005260206000209060050201600082018160000190805460018160011615610100020316600290046123b09291906135d5565b506001820160009054906101000a900473ffffffffffffffffffffffffffffffffffffffff168160010160006101000a81548173ffffffffffffffffffffffffffffffffffffffff021916908373ffffffffffffffffffffffffffffffffffffffff1602179055506002820154816002015560038201548160030155600482018160040190805460018160011615610100020316600290046124539291906135d5565b50905050806001019050612340565b6001805480919060019003612477919061368e565b5060009250612491565b8160010191506122b8565b600192505b5050919050565b606060008090505b6001805490508110156125ec578273ffffffffffffffffffffffffffffffffffffffff166001828154811015156124d357fe5b906000526020600020906005020160010160009054906101000a900473ffffffffffffffffffffffffffffffffffffffff1673ffffffffffffffffffffffffffffffffffffffff1614156125e15760018181548110151561253057fe5b90600052602060002090600502016004018054600181600116156101000203166002900480601f0160208091040260200160405190810160405280929190818152602001828054600181600116156101000203166002900480156125d55780601f106125aa576101008083540402835291602001916125d5565b820191906000526020600020905b8154815290600101906020018083116125b857829003601f168201915b50505050509150612625565b8060010190506124a0565b6040805190810160405280600481526020017f6e756c6c0000000000000000000000000000000000000000000000000000000081525091505b50919050565b600080600090505b6001805490508110156126e7578273ffffffffffffffffffffffffffffffffffffffff1660018281548110151561266657fe5b906000526020600020906005020160010160009054906101000a900473ffffffffffffffffffffffffffffffffffffffff1673ffffffffffffffffffffffffffffffffffffffff1614156126dc576001818154811015156126c357fe5b90600052602060002090600502016003015491506126ec565b806001019050612633565b600091505b50919050565b600080600090505b60008054905081101561290d5761273060008281548110151561271957fe5b9060005260206000209060060201600001856133a0565b1561290257821561281c5760008181548110151561274a57fe5b90600052602060002090600602016003016000815480929190600101919050555060008181548110151561277a57fe5b906000526020600020906006020160030154606481151561279757fe5b046000828154811015156127a757fe5b9060005260206000209060060201600201600082825401925050819055506101f46000828154811015156127d757fe5b9060005260206000209060060201600201541115612817576101f460008281548110151561280157fe5b9060005260206000209060060201600201819055505b6128f9565b60008181548110151561282b57fe5b90600052602060002090600602016003016000815480929190600190039190505550600160008281548110151561285e57fe5b90600052602060002090600602016003015401606481151561287c57fe5b0460008281548110151561288c57fe5b906000526020600020906006020160020160008282540392505081905550600080828154811015156128ba57fe5b90600052602060002090600602016002015410156128f857600080828154811015156128e257fe5b9060005260206000209060060201600201819055505b5b60009150612912565b8060010190506126fa565b600191505b5092915050565b606060008090505b600180549050811015612a1b578273ffffffffffffffffffffffffffffffffffffffff1660018281548110151561295457fe5b906000526020600020906005020160010160009054906101000a900473ffffffffffffffffffffffffffffffffffffffff1673ffffffffffffffffffffffffffffffffffffffff161480156129ce57506129cd6001828154811015156129b657fe5b9060005260206000209060050201600001856133a0565b5b15612a10576040805190810160405280600181526020017f30000000000000000000000000000000000000000000000000000000000000008152509150612a54565b806001019050612921565b6040805190810160405280600481526020017f6e756c6c0000000000000000000000000000000000000000000000000000000081525091505b5092915050565b6000806000809150600090505b600280549050811015612b5f57612a9e600282815481101515612a8757fe5b9060005260206000209060020201600001866133a0565b8015612aa957508382145b15612b4c5760001515600282815481101515612ac157fe5b906000526020600020906002020160010160149054906101000a900460ff1615151415612b3057600281815481101515612af757fe5b906000526020600020906002020160010160009054906101000a900473ffffffffffffffffffffffffffffffffffffffff169250612b77565b7314e041521a40e32ed88b22c0f32469f5406d757b9250612b77565b8180600101925050806001019050612a68565b7314e041521a40e32ed88b22c0f32469f5406d757a92505b505092915050565b600080600090505b600080549050811015612c7157612bbd600082815481101515612ba657fe5b9060005260206000209060060201600001856133a0565b8015612c235750612c22600082815481101515612bd657fe5b90600052602060002090600602016005016040805190810160405280600481526020017f6e756c6c000000000000000000000000000000000000000000000000000000008152506133a0565b5b15612c665782600082815481101515612c3857fe5b90600052602060002090600602016005019080519060200190612c5c9291906136c0565b5060019150612c76565b806001019050612b87565b600091505b5092915050565b60007fe0bfb40a6a772f6cac73ab5c02b781bb40e1a4fea7bd84066a7a430cc224d0bd846040518080602001828103825283818151815260200191508051906020019080838360005b83811015612ce1578082015181840152602081019050612cc6565b50505050905090810190601f168015612d0e5780820380516001836020036101000a031916815260200191505b509250505060405180910390a160006001805490501480612d335750612d32612e5d565b5b15612e515760018054809190600101612d4c919061368e565b5060a0604051908101604052808581526020018473ffffffffffffffffffffffffffffffffffffffff16815260200160c881526020016000815260200183815250600180808054905003815481101515612da257fe5b90600052602060002090600502016000820151816000019080519060200190612dcc929190613555565b5060208201518160010160006101000a81548173ffffffffffffffffffffffffffffffffffffffff021916908373ffffffffffffffffffffffffffffffffffffffff16021790555060408201518160020155606082015181600301556080820151816004019080519060200190612e44929190613555565b5090505060009050612e56565b600790505b9392505050565b600080600090505b600180549050811015612efa573373ffffffffffffffffffffffffffffffffffffffff16600182815481101515612e9857fe5b906000526020600020906005020160010160009054906101000a900473ffffffffffffffffffffffffffffffffffffffff1673ffffffffffffffffffffffffffffffffffffffff161415612eef5760019150612eff565b806001019050612e65565b600091505b5090565b600080600090505b600080549050811015612fa157612f41600082815481101515612f2a57fe5b9060005260206000209060060201600001846133a0565b15612f9657612f8f600082815481101515612f5857fe5b906000526020600020906006020160040160009054906101000a900473ffffffffffffffffffffffffffffffffffffffff1661262b565b9150612fa2565b806001019050612f0b565b5b50919050565b6000600280549050905092915050565b600080612fc3612e5d565b1515612fd257600791506130bf565b600090505b6000805490508110156130ba5761300d600082815481101515612ff657fe5b9060005260206000209060060201600001856133a0565b156130af578260008281548110151561302257fe5b906000526020600020906006020160010190805190602001906130469291906136c0565b503360008281548110151561305757fe5b906000526020600020906006020160040160006101000a81548173ffffffffffffffffffffffffffffffffffffffff021916908373ffffffffffffffffffffffffffffffffffffffff160217905550600091506130bf565b806001019050612fd7565b600191505b5092915050565b606060008090505b600080549050811015613164576131046000828154811015156130ed57fe5b9060005260206000209060060201600001846133a0565b156131595761315260008281548110151561311b57fe5b906000526020600020906006020160040160009054906101000a900473ffffffffffffffffffffffffffffffffffffffff16611123565b9150613165565b8060010190506130ce565b5b50919050565b600080600080613179612e5d565b15156131885760079350613398565b600092505b600080549050831015613393576131c36000848154811015156131ac57fe5b9060005260206000209060060201600001866133a0565b15613388576000838154811015156131d757fe5b906000526020600020906006020160040160009054906101000a900473ffffffffffffffffffffffffffffffffffffffff1691506001830190505b60008054905081101561335d5760008381548110151561322e57fe5b906000526020600020906006020160006001850381548110151561324e57fe5b9060005260206000209060060201600082018160000190805460018160011615610100020316600290046132839291906135d5565b50600182018160010190805460018160011615610100020316600290046132ab9291906135d5565b5060028201548160020155600382015481600301556004820160009054906101000a900473ffffffffffffffffffffffffffffffffffffffff168160040160006101000a81548173ffffffffffffffffffffffffffffffffffffffff021916908373ffffffffffffffffffffffffffffffffffffffff1602179055506005820181600501908054600181600116156101000203166002900461334e9291906135d5565b50905050806001019050613212565b60008054809190600190036133729190613523565b5061337e826000611d01565b5060009350613398565b82600101925061318d565b600193505b505050919050565b600080606060008592508491508151838054600181600116156101000203166002900490501415156133d5576000935061351a565b600090505b8280546001816001161561010002031660029004905081101561351557818181518110151561340557fe5b9060200101517f010000000000000000000000000000000000000000000000000000000000000090047f0100000000000000000000000000000000000000000000000000000000000000027effffffffffffffffffffffffffffffffffffffffffffffffffffffffffffff19168382815460018160011615610100020316600290048110151561349157fe5b8154600116156134b05790600052602060002090602091828204019190065b9054901a7f0100000000000000000000000000000000000000000000000000000000000000027effffffffffffffffffffffffffffffffffffffffffffffffffffffffffffff1916141515613508576000935061351a565b80806001019150506133da565b600193505b50505092915050565b8154818355818111156135505760060281600602836000526020600020918201910161354f9190613740565b5b505050565b828054600181600116156101000203166002900490600052602060002090601f016020900481019282601f1061359657805160ff19168380011785556135c4565b828001600101855582156135c4579182015b828111156135c35782518255916020019190600101906135a8565b5b5090506135d191906137c6565b5090565b828054600181600116156101000203166002900490600052602060002090601f016020900481019282601f1061360e578054855561364b565b8280016001018555821561364b57600052602060002091601f016020900482015b8281111561364a57825482559160010191906001019061362f565b5b50905061365891906137c6565b5090565b8154818355818111156136895760020281600202836000526020600020918201910161368891906137eb565b5b505050565b8154818355818111156136bb576005028160050283600052602060002091820191016136ba9190613855565b5b505050565b828054600181600116156101000203166002900490600052602060002090601f016020900481019282601f1061370157805160ff191683800117855561372f565b8280016001018555821561372f579182015b8281111561372e578251825591602001919060010190613713565b5b50905061373c91906137c6565b5090565b6137c391905b808211156137bf576000808201600061375f91906138cb565b60018201600061376f91906138cb565b600282016000905560038201600090556004820160006101000a81549073ffffffffffffffffffffffffffffffffffffffff02191690556005820160006137b691906138cb565b50600601613746565b5090565b90565b6137e891905b808211156137e45760008160009055506001016137cc565b5090565b90565b61385291905b8082111561384e576000808201600061380a91906138cb565b6001820160006101000a81549073ffffffffffffffffffffffffffffffffffffffff02191690556001820160146101000a81549060ff0219169055506002016137f1565b5090565b90565b6138c891905b808211156138c4576000808201600061387491906138cb565b6001820160006101000a81549073ffffffffffffffffffffffffffffffffffffffff0219169055600282016000905560038201600090556004820160006138bb91906138cb565b5060050161385b565b5090565b90565b50805460018160011615610100020316600290046000825580601f106138f15750613910565b601f01602090049060005260206000209081019061390f91906137c6565b5b505600a165627a7a723058203b5e64b4bc198a4d3ff1c4221f67906bbaa35c09364b6b77401a78a564857bee0029",
  "source": "pragma solidity ^0.4.4;\n\ncontract kyc {\n\n    //  Struct customer\n    //  uname - username of the customer\n    //  dataHash - customer data\n    //  rating - rating given to customer given based on regularity\n    //  upvotes - number of upvotes recieved from banks\n    //  bank - address of bank that validated the customer account\n\n    struct Customer {\n        string uname;\n        string dataHash;\n        uint rating;\n        uint upvotes;\n        address bank;\n        string password;\n    }\n\n    //  Struct Organisation\n    //  name - name of the bank/organisation\n    //  ethAddress - ethereum address of the bank/organisation\n    //  rating - rating based on number of valid/invalid verified accounts\n    //  KYC_count - number of KYCs verified by the bank/organisation\n\n    struct Organisation {\n        string name;\n        address ethAddress;\n        uint rating;\n        uint KYC_count;\n        string regNumber;\n    }\n\n    struct Request {\n        string uname;\n        address bankAddress;\n        bool isAllowed;\n    }\n\n    //  list of all customers\n\n    Customer[] allCustomers;\n\n    //  list of all Banks/Organisations\n\n    Organisation[] allOrgs;\n\n\n    Request[] allRequests;\n\n    event addBankEvent ( string uname);\n    \n\n    function ifAllowed(string Uname, address bankAddress) public payable returns(bool) {\n        for(uint i = 0; i < allRequests.length; ++i) {\n            if(stringsEqual(allRequests[i].uname, Uname) && allRequests[i].bankAddress == bankAddress && allRequests[i].isAllowed) {\n                return true;\n            }\n        }\n        return false;\n    }\n\n\n  function getBankRequests1(string Uname, uint ind) public payable returns(address) {\n        uint j = 0;\n        for(uint i=0;i<allRequests.length;++i) {\n            if(stringsEqual(allRequests[i].uname, Uname) && j == ind && allRequests[i].isAllowed == false) {\n                return allRequests[i].bankAddress;\n            }\n            j ++;\n        }\n        return 0x14e041521a40e32ed88b22c0f32469f5406d757a;\n    }\n\n    function getBankRequests(string Uname, uint ind) public payable returns(address) {\n        uint j = 0;\n        for(uint i=0;i<allRequests.length;++i) {\n            if(stringsEqual(allRequests[i].uname, Uname) && j == ind ) { \n\t\t\t\tif(allRequests[i].isAllowed == false) {\n                \t\treturn allRequests[i].bankAddress;\n\t\t\t\t\t}\n\t\t\t\t\telse {\n\t\t\t\t\t\treturn 0x14e041521a40e32ed88b22c0f32469f5406d757b;\n\t\t\t\t\t}\n            \t}\n            j ++;\n        }\n        return 0x14e041521a40e32ed88b22c0f32469f5406d757a;\n    }\n\n    function getBankRequestsDetails(string Uname, uint ind) public payable returns(address,bool) {\n        uint j = 0;\n        for(uint i=0;i<allRequests.length;++i) {\n            if(stringsEqual(allRequests[i].uname, Uname) && j == ind) {\n                return (allRequests[i].bankAddress,allRequests[i].isAllowed);\n            }\n            j ++;\n        }\n        return (0x14e041521a40e32ed88b22c0f32469f5406d757a,true);\n    }\n    function getBankRequestsCount(string Uname, uint ind) public payable returns(uint) {\n        return allRequests.length;\n    }\n\n\n    function addRequest(string Uname, address bankAddress) public payable returns(bool){\n        for(uint i = 0; i < allRequests.length; ++ i) {\n            if(stringsEqual(allRequests[i].uname, Uname) && allRequests[i].bankAddress == bankAddress) {\n                return false;\n            }\n        }\n        allRequests.length ++;\n        allRequests[allRequests.length - 1] = Request(Uname, bankAddress, false);\n\treturn true;\n    }\n\n    function allowBank(string Uname, address bankAddress, bool ifallowed) public payable {\n        for(uint i = 0; i < allRequests.length; ++ i) {\n            if(stringsEqual(allRequests[i].uname, Uname) && allRequests[i].bankAddress == bankAddress) {\n                if(ifallowed) {\n                    allRequests[i].isAllowed = true;\n                } else {\n                    for(uint j=i;j<allRequests.length-1; j++) {\n                        allRequests[j] = allRequests[j+1];\n                    }\n                    allRequests.length --;\n                }\n                return;\n            }\n        }\n    }\n\n    //   internal function to compare strings\n    \n    function stringsEqual(string storage _a, string memory _b) internal returns (bool) {\n\t\tbytes storage a = bytes(_a);\n\t\tbytes memory b = bytes(_b);\n\t\tif (a.length != b.length)\n\t\t\treturn false;\n\t\t// @todo unroll this loop\n\t\tfor (uint i = 0; i < a.length; i ++)\n        {\n\t\t\tif (a[i] != b[i])\n\t\t\t\treturn false;\n        }\n\t\treturn true;\n\t}\n\n    //  function to check access rights of transaction request sender\n\n    function isPartOfOrg() public view returns(bool) {\n        for(uint i = 0; i < allOrgs.length; ++ i) {\n            if(allOrgs[i].ethAddress == msg.sender)\n                return true;\n        }\n        return false;\n    }\n\n    //  function that adds an organisation to the network\n    //  returns 0 if successfull\n    //  returns 7 if no access rights to transaction request sender\n    //  no check on access rights if network strength in zero\n\n    function addBank(string uname, address eth, string regNum) public payable returns(uint) {\n\temit addBankEvent ( uname);\n        if(allOrgs.length == 0 || isPartOfOrg()) {\n            allOrgs.length ++;\n            allOrgs[allOrgs.length - 1] = Organisation(uname, eth, 200, 0, regNum);\n            return 0;\n        }\n\n        return 7;\n    }\n\n    //  function that removes an organisation from the network\n    //  returns 0 if successful\n    //  returns 7 if no access rights to transaction request sender\n    //  returns 1 if organisation to be removed not part of network\n\n    function removeBank(address eth) public payable returns(uint) {\n        if(!isPartOfOrg())\n            return 7;\n        for(uint i = 0; i < allOrgs.length; ++ i) {\n            if(allOrgs[i].ethAddress == eth) {\n                for(uint j = i+1;j < allOrgs.length; ++ j) {\n                    allOrgs[i-1] = allOrgs[i];\n                }\n                allOrgs.length --;\n                return 0;\n            }\n        }\n        return 1;\n    }\n\n    //  function to add a customer profile to the database\n    //  returns 0 if successful\n    //  returns 7 if no access rights to transaction request sender\n    //  returns 1 if size limit of the database is reached\n    //  returns 2 if customer already in network\n\n    function addCustomer(string Uname, string DataHash) public payable returns(uint) {\n        if(!isPartOfOrg())\n            return 7;\n        //  throw error if username already in use\n        for(uint i = 0;i < allCustomers.length; ++ i) {\n            if(stringsEqual(allCustomers[i].uname, Uname))\n                return 2;\n        }\n        allCustomers.length ++;\n        //  throw error if there is overflow in uint\n        if(allCustomers.length < 1)\n            return 1;\n        allCustomers[allCustomers.length-1] = Customer(Uname, DataHash, 100, 0, msg.sender, \"null\");\n        updateRating(msg.sender,true);\n        return 0;\n    }\n\n    //  function to remove fraudulent customer profile from the database\n    //  returns 0 if successful\n    //  returns 7 if no access rights to transaction request sender\n    //  returns 1 if customer profile not in database\n\n    function removeCustomer(string Uname) public payable returns(uint) {\n        if(!isPartOfOrg())\n            return 7;\n        for(uint i = 0; i < allCustomers.length; ++ i) {\n            if(stringsEqual(allCustomers[i].uname, Uname)) {\n                address a = allCustomers[i].bank;\n                for(uint j = i+1;j < allCustomers.length; ++ j) {\n                    allCustomers[i-1] = allCustomers[i];\n                }\n                allCustomers.length --;\n                updateRating(a,false);\n                //  updateRating(msg.sender, true);\n                return 0;\n            }\n        }\n        //  throw error if uname not found\n        return 1;\n    }\n\n    //  function to modify a customer profile in database\n    //  returns 0 if successful\n    //  returns 7 if no access rights to transaction request sender\n    //  returns 1 if customer profile not in database\n\n    function modifyCustomer(string Uname,string DataHash) public payable returns(uint) {\n        if(!isPartOfOrg())\n            return 7;\n        for(uint i = 0; i < allCustomers.length; ++ i) {\n            if(stringsEqual(allCustomers[i].uname, Uname)) {\n                allCustomers[i].dataHash = DataHash;\n                allCustomers[i].bank = msg.sender;\n                return 0;\n            }\n        }\n        //  throw error if uname not found\n        return 1;\n    }\n\n    // function to return customer profile data\n\n    function viewCustomer(string Uname) public payable returns(string) {\n        if(!isPartOfOrg())\n            return \"Access denied!\";\n        for(uint i = 0; i < allCustomers.length; ++ i) {\n            if(stringsEqual(allCustomers[i].uname, Uname)) {\n                return allCustomers[i].dataHash;\n            }\n        }\n        return \"Customer not found in database!\";\n    }\n\n    //  function to modify customer rating\n\n    function updateRatingCustomer(string Uname, bool ifIncrease) public payable returns(uint) {\n        for(uint i = 0; i < allCustomers.length; ++ i) {\n            if(stringsEqual(allCustomers[i].uname, Uname)) {\n                //update rating\n                if(ifIncrease) {\n                    allCustomers[i].upvotes ++;\n                    allCustomers[i].rating += 100/(allCustomers[i].upvotes);\n                    if(allCustomers[i].rating > 500) {\n                        allCustomers[i].rating = 500;\n                    }\n                }\n                else {\n                    allCustomers[i].upvotes --;\n                    allCustomers[i].rating -= 100/(allCustomers[i].upvotes + 1);\n                    if(allCustomers[i].rating < 0) {\n                        allCustomers[i].rating = 0;\n                    }\n                }\n                return 0;\n            }\n        }\n        //  throw error if bank not found\n        return 1;\n    }\n\n    //  function to update organisation rating\n    //  bool true indicates a succesfull addition of KYC profile\n    //  false indicates detection of a fraudulent profile\n\n    function updateRating(address bankAddress,bool ifAdded) public payable returns(uint) {\n        for(uint i = 0; i < allOrgs.length; ++ i) {\n            if(allOrgs[i].ethAddress == bankAddress) {\n                //update rating\n                if(ifAdded) {\n                    allOrgs[i].KYC_count ++;\n                    allOrgs[i].rating += 100/(allOrgs[i].KYC_count);\n                    if(allOrgs[i].rating > 500) {\n                        allOrgs[i].rating = 500;\n                    }\n                }\n                else {\n                    //  allOrgs[i].KYC_count --;\n                    allOrgs[i].rating -= 100/(allOrgs[i].KYC_count + 1);\n                    if(allOrgs[i].rating < 0) {\n                        allOrgs[i].rating = 0;\n                    }\n                }\n                return 0;\n            }\n        }\n        //  throw error if bank not found\n        return 1;\n    }\n\n    //  function to validate bank log in\n    //  returns null if username or password not correct\n    //  returns bank name if correct\n    function checkBank(string Uname, address password) public view returns(string) {\n        for(uint i = 0; i < allOrgs.length; ++ i) {\n            if(allOrgs[i].ethAddress == password && stringsEqual(allOrgs[i].name, Uname)) {\n                return \"0\";\n            }\n        }\n        return \"null\";\n    }\n\n    function checkCustomer(string Uname, string password) public view  returns(bool) {\n        for(uint i = 0; i < allCustomers.length; ++ i) {\n            if(stringsEqual(allCustomers[i].uname, Uname) && stringsEqual(allCustomers[i].password, password)) {\n                return true;\n            }\n            if(stringsEqual(allCustomers[i].uname, Uname)) {\n                return false;\n            }\n        }\n        return false;\n    }\n\n    function setPassword(string Uname, string password) public payable returns(bool) {\n        for(uint i=0;i < allCustomers.length; ++ i) {\n            if(stringsEqual(allCustomers[i].uname, Uname) && stringsEqual(allCustomers[i].password, \"null\")) {\n                allCustomers[i].password = password;\n                return true;\n            }\n        }\n        return false;\n    }\n\n    // All getter functions\n\n    function getBankName(address ethAcc) public payable returns(string) {\n        for(uint i = 0; i < allOrgs.length; ++ i) {\n            if(allOrgs[i].ethAddress == ethAcc) {\n                return allOrgs[i].name;\n            }\n        }\n        return \"null\";\n    }\n\n    function getBankEth(string uname) public payable returns(address) {\n        for(uint i = 0; i < allOrgs.length; ++ i) {\n            if(stringsEqual(allOrgs[i].name, uname)) {\n                return allOrgs[i].ethAddress;\n            }\n        }\n        return 0x14e041521a40e32ed88b22c0f32469f5406d757a;\n    }\n\n    function getCustomerBankName(string Uname) public payable returns(string) {\n        for(uint i = 0;i < allCustomers.length; ++ i) {\n            if(stringsEqual(allCustomers[i].uname, Uname)) {\n                return getBankName(allCustomers[i].bank);\n            }\n        }\n    }\n\n    function getBankReg(address ethAcc) public payable returns(string) {\n        for(uint i = 0; i < allOrgs.length; ++ i) {\n            if(allOrgs[i].ethAddress == ethAcc) {\n                return allOrgs[i].regNumber;\n            }\n        }\n        return \"null\";\n    }\n\n    function getBankKYC(address ethAcc) public payable returns(uint) {\n        for(uint i = 0; i < allOrgs.length; ++ i) {\n            if(allOrgs[i].ethAddress == ethAcc) {\n                return allOrgs[i].KYC_count;\n            }\n        }\n        return 0;\n    }\n\n    function getBankRating(address ethAcc) public payable returns(uint) {\n        for(uint i = 0; i < allOrgs.length; ++ i) {\n            if(allOrgs[i].ethAddress == ethAcc) {\n                //return allOrgs[i].rating;\n                return allOrgs[i].KYC_count;\n            }\n        }\n        return 0;\n    }\n\n    function getCustomerBankRating(string Uname) public payable returns(uint) {\n        for(uint i = 0;i < allCustomers.length; ++ i) {\n            if(stringsEqual(allCustomers[i].uname, Uname)) {\n                return getBankRating(allCustomers[i].bank);\n            }\n        }\n    }\n\n    function getCustomerRating(string Uname) public payable returns(uint) {\n        for(uint i = 0; i < allCustomers.length; ++ i) {\n            if(stringsEqual(allCustomers[i].uname, Uname)) {\n                return allCustomers[i].rating;\n            }\n        }\n        return 0;\n    }\n\n}\n",
  "sourcePath": "/home/kartikeya/Ethereum/Ethereum/Consensys/KYC_FinalProject/contracts/kyc.sol",
  "compiler": {
    "name": "solc",
    "version": "0.4.25+commit.59dbf8f1.Emscripten.clang"
  },
  "schemaVersion": "3.0.1",
  "updatedAt": "2019-01-27T12:06:02.529Z",
  "devdoc": {
    "methods": {}
  },
  "userdoc": {
    "methods": {}
  }
}