{
  "contractName": "kyc",
  "abi": [
    {
      "anonymous": false,
      "inputs": [
        {
          "indexed": false,
          "name": "uname",
          "type": "string"
        }
      ],
      "name": "addBankEvent",
      "type": "event"
    },
    {
      "constant": false,
      "inputs": [
        {
          "name": "Uname",
          "type": "string"
        },
        {
          "name": "bankAddress",
          "type": "address"
        }
      ],
      "name": "ifAllowed",
      "outputs": [
        {
          "name": "",
          "type": "bool"
        }
      ],
      "payable": true,
      "stateMutability": "payable",
      "type": "function"
    },
    {
      "constant": false,
      "inputs": [
        {
          "name": "Uname",
          "type": "string"
        },
        {
          "name": "ind",
          "type": "uint256"
        }
      ],
      "name": "getBankRequests1",
      "outputs": [
        {
          "name": "",
          "type": "address"
        }
      ],
      "payable": true,
      "stateMutability": "payable",
      "type": "function"
    },
    {
      "constant": false,
      "inputs": [
        {
          "name": "Uname",
          "type": "string"
        },
        {
          "name": "ind",
          "type": "uint256"
        }
      ],
      "name": "getBankRequests",
      "outputs": [
        {
          "name": "",
          "type": "address"
        }
      ],
      "payable": true,
      "stateMutability": "payable",
      "type": "function"
    },
    {
      "constant": false,
      "inputs": [
        {
          "name": "Uname",
          "type": "string"
        },
        {
          "name": "ind",
          "type": "uint256"
        }
      ],
      "name": "getBankRequestsDetails",
      "outputs": [
        {
          "name": "",
          "type": "address"
        },
        {
          "name": "",
          "type": "bool"
        }
      ],
      "payable": true,
      "stateMutability": "payable",
      "type": "function"
    },
    {
      "constant": false,
      "inputs": [
        {
          "name": "Uname",
          "type": "string"
        },
        {
          "name": "ind",
          "type": "uint256"
        }
      ],
      "name": "getBankRequestsCount",
      "outputs": [
        {
          "name": "",
          "type": "uint256"
        }
      ],
      "payable": true,
      "stateMutability": "payable",
      "type": "function"
    },
    {
      "constant": false,
      "inputs": [
        {
          "name": "Uname",
          "type": "string"
        },
        {
          "name": "bankAddress",
          "type": "address"
        }
      ],
      "name": "addRequest",
      "outputs": [
        {
          "name": "",
          "type": "bool"
        }
      ],
      "payable": true,
      "stateMutability": "payable",
      "type": "function"
    },
    {
      "constant": false,
      "inputs": [
        {
          "name": "Uname",
          "type": "string"
        },
        {
          "name": "bankAddress",
          "type": "address"
        },
        {
          "name": "ifallowed",
          "type": "bool"
        }
      ],
      "name": "allowBank",
      "outputs": [],
      "payable": true,
      "stateMutability": "payable",
      "type": "function"
    },
    {
      "constant": true,
      "inputs": [],
      "name": "isPartOfOrg",
      "outputs": [
        {
          "name": "",
          "type": "bool"
        }
      ],
      "payable": false,
      "stateMutability": "view",
      "type": "function"
    },
    {
      "constant": false,
      "inputs": [
        {
          "name": "uname",
          "type": "string"
        },
        {
          "name": "eth",
          "type": "address"
        },
        {
          "name": "regNum",
          "type": "string"
        }
      ],
      "name": "addBank",
      "outputs": [
        {
          "name": "",
          "type": "uint256"
        }
      ],
      "payable": true,
      "stateMutability": "payable",
      "type": "function"
    },
    {
      "constant": false,
      "inputs": [
        {
          "name": "eth",
          "type": "address"
        }
      ],
      "name": "removeBank",
      "outputs": [
        {
          "name": "",
          "type": "uint256"
        }
      ],
      "payable": true,
      "stateMutability": "payable",
      "type": "function"
    },
    {
      "constant": false,
      "inputs": [
        {
          "name": "Uname",
          "type": "string"
        },
        {
          "name": "DataHash",
          "type": "string"
        }
      ],
      "name": "addCustomer",
      "outputs": [
        {
          "name": "",
          "type": "uint256"
        }
      ],
      "payable": true,
      "stateMutability": "payable",
      "type": "function"
    },
    {
      "constant": false,
      "inputs": [
        {
          "name": "Uname",
          "type": "string"
        }
      ],
      "name": "removeCustomer",
      "outputs": [
        {
          "name": "",
          "type": "uint256"
        }
      ],
      "payable": true,
      "stateMutability": "payable",
      "type": "function"
    },
    {
      "constant": false,
      "inputs": [
        {
          "name": "Uname",
          "type": "string"
        },
        {
          "name": "DataHash",
          "type": "string"
        }
      ],
      "name": "modifyCustomer",
      "outputs": [
        {
          "name": "",
          "type": "uint256"
        }
      ],
      "payable": true,
      "stateMutability": "payable",
      "type": "function"
    },
    {
      "constant": false,
      "inputs": [
        {
          "name": "Uname",
          "type": "string"
        }
      ],
      "name": "viewCustomer",
      "outputs": [
        {
          "name": "",
          "type": "string"
        }
      ],
      "payable": true,
      "stateMutability": "payable",
      "type": "function"
    },
    {
      "constant": false,
      "inputs": [
        {
          "name": "Uname",
          "type": "string"
        },
        {
          "name": "ifIncrease",
          "type": "bool"
        }
      ],
      "name": "updateRatingCustomer",
      "outputs": [
        {
          "name": "",
          "type": "uint256"
        }
      ],
      "payable": true,
      "stateMutability": "payable",
      "type": "function"
    },
    {
      "constant": false,
      "inputs": [
        {
          "name": "bankAddress",
          "type": "address"
        },
        {
          "name": "ifAdded",
          "type": "bool"
        }
      ],
      "name": "updateRating",
      "outputs": [
        {
          "name": "",
          "type": "uint256"
        }
      ],
      "payable": true,
      "stateMutability": "payable",
      "type": "function"
    },
    {
      "constant": true,
      "inputs": [
        {
          "name": "Uname",
          "type": "string"
        },
        {
          "name": "password",
          "type": "address"
        }
      ],
      "name": "checkBank",
      "outputs": [
        {
          "name": "",
          "type": "string"
        }
      ],
      "payable": false,
      "stateMutability": "view",
      "type": "function"
    },
    {
      "constant": true,
      "inputs": [
        {
          "name": "Uname",
          "type": "string"
        },
        {
          "name": "password",
          "type": "string"
        }
      ],
      "name": "checkCustomer",
      "outputs": [
        {
          "name": "",
          "type": "bool"
        }
      ],
      "payable": false,
      "stateMutability": "view",
      "type": "function"
    },
    {
      "constant": false,
      "inputs": [
        {
          "name": "Uname",
          "type": "string"
        },
        {
          "name": "password",
          "type": "string"
        }
      ],
      "name": "setPassword",
      "outputs": [
        {
          "name": "",
          "type": "bool"
        }
      ],
      "payable": true,
      "stateMutability": "payable",
      "type": "function"
    },
    {
      "constant": false,
      "inputs": [
        {
          "name": "ethAcc",
          "type": "address"
        }
      ],
      "name": "getBankName",
      "outputs": [
        {
          "name": "",
          "type": "string"
        }
      ],
      "payable": true,
      "stateMutability": "payable",
      "type": "function"
    },
    {
      "constant": false,
      "inputs": [
        {
          "name": "uname",
          "type": "string"
        }
      ],
      "name": "getBankEth",
      "outputs": [
        {
          "name": "",
          "type": "address"
        }
      ],
      "payable": true,
      "stateMutability": "payable",
      "type": "function"
    },
    {
      "constant": false,
      "inputs": [
        {
          "name": "Uname",
          "type": "string"
        }
      ],
      "name": "getCustomerBankName",
      "outputs": [
        {
          "name": "",
          "type": "string"
        }
      ],
      "payable": true,
      "stateMutability": "payable",
      "type": "function"
    },
    {
      "constant": false,
      "inputs": [
        {
          "name": "ethAcc",
          "type": "address"
        }
      ],
      "name": "getBankReg",
      "outputs": [
        {
          "name": "",
          "type": "string"
        }
      ],
      "payable": true,
      "stateMutability": "payable",
      "type": "function"
    },
    {
      "constant": false,
      "inputs": [
        {
          "name": "ethAcc",
          "type": "address"
        }
      ],
      "name": "getBankKYC",
      "outputs": [
        {
          "name": "",
          "type": "uint256"
        }
      ],
      "payable": true,
      "stateMutability": "payable",
      "type": "function"
    },
    {
      "constant": false,
      "inputs": [
        {
          "name": "ethAcc",
          "type": "address"
        }
      ],
      "name": "getBankRating",
      "outputs": [
        {
          "name": "",
          "type": "uint256"
        }
      ],
      "payable": true,
      "stateMutability": "payable",
      "type": "function"
    },
    {
      "constant": false,
      "inputs": [
        {
          "name": "Uname",
          "type": "string"
        }
      ],
      "name": "getCustomerBankRating",
      "outputs": [
        {
          "name": "",
          "type": "uint256"
        }
      ],
      "payable": true,
      "stateMutability": "payable",
      "type": "function"
    },
    {
      "constant": false,
      "inputs": [
        {
          "name": "Uname",
          "type": "string"
        }
      ],
      "name": "getCustomerRating",
      "outputs": [
        {
          "name": "",
          "type": "uint256"
        }
      ],
      "payable": true,
      "stateMutability": "payable",
      "type": "function"
    },
    {
      "constant": false,
      "inputs": [],
      "name": "kill",
      "outputs": [],
      "payable": false,
      "stateMutability": "nonpayable",
      "type": "function"
    }
  ],
  "bytecode": "0x6080604052336000806101000a81548173ffffffffffffffffffffffffffffffffffffffff021916908373ffffffffffffffffffffffffffffffffffffffff1602179055506139f3806100536000396000f30060806040526004361061016a576000357c0100000000000000000000000000000000000000000000000000000000900463ffffffff16806301da7b311461016f578063107925bb1461021e5780631cfb7c9a146102f35780633190abc01461038757806339b83b681461043d57806341c0e1b5146104c55780634b726f61146104dc5780634ec2b417146105a35780635b3de1c8146105ed57806372f0b56b146106895780637d2f42c31461072f578063813e1e04146107855780638873704c146108365780638eafe0f0146108ca5780639649650c1461093a5780639ac3fce614610984578063b8144a7214610a33578063bbd4edb114610a7d578063c17d872014610af9578063c71029e114610bfb578063ca38649614610ca1578063ccfa8e7114610d5b578063d06760da14610e31578063e979bac114610e60578063eac918e514610ed0578063f72860ca14610f4a578063f9dc079314611000578063fc55ea9d146110d5575b600080fd5b6101a3600480360381019080803573ffffffffffffffffffffffffffffffffffffffff169060200190929190505050611145565b6040518080602001828103825283818151815260200191508051906020019080838360005b838110156101e35780820151818401526020810190506101c8565b50505050905090810190601f1680156102105780820380516001836020036101000a031916815260200191505b509250505060405180910390f35b610278600480360381019080803590602001908201803590602001908080601f01602080910402602001604051908101604052809392919081815260200183838082843782019150505050505091929192905050506112d8565b6040518080602001828103825283818151815260200191508051906020019080838360005b838110156102b857808201518184015260208101905061029d565b50505050905090810190601f1680156102e55780820380516001836020036101000a031916815260200191505b509250505060405180910390f35b61036d600480360381019080803590602001908201803590602001908080601f0160208091040260200160405190810160405280939291908181526020018383808284378201915050505050509192919290803573ffffffffffffffffffffffffffffffffffffffff169060200190929190505050611471565b604051808215151515815260200191505060405180910390f35b610427600480360381019080803590602001908201803590602001908080601f0160208091040260200160405190810160405280939291908181526020018383808284378201915050505050509192919290803590602001908201803590602001908080601f0160208091040260200160405190810160405280939291908181526020018383808284378201915050505050509192919290505050611581565b6040518082815260200191505060405180910390f35b6104c3600480360381019080803590602001908201803590602001908080601f0160208091040260200160405190810160405280939291908181526020018383808284378201915050505050509192919290803573ffffffffffffffffffffffffffffffffffffffff169060200190929190803515159060200190929190505050611785565b005b3480156104d157600080fd5b506104da6119cf565b005b3480156104e857600080fd5b50610589600480360381019080803590602001908201803590602001908080601f0160208091040260200160405190810160405280939291908181526020018383808284378201915050505050509192919290803590602001908201803590602001908080601f0160208091040260200160405190810160405280939291908181526020018383808284378201915050505050509192919290505050611a60565b604051808215151515815260200191505060405180910390f35b6105d7600480360381019080803573ffffffffffffffffffffffffffffffffffffffff169060200190929190505050611b2b565b6040518082815260200191505060405180910390f35b610647600480360381019080803590602001908201803590602001908080601f0160208091040260200160405190810160405280939291908181526020018383808284378201915050505050509192919290505050611bf2565b604051808273ffffffffffffffffffffffffffffffffffffffff1673ffffffffffffffffffffffffffffffffffffffff16815260200191505060405180910390f35b6106ed600480360381019080803590602001908201803590602001908080601f016020809104026020016040519081016040528093929190818152602001838380828437820191505050505050919291929080359060200190929190505050611ca6565b604051808273ffffffffffffffffffffffffffffffffffffffff1673ffffffffffffffffffffffffffffffffffffffff16815260200191505060405180910390f35b61076f600480360381019080803573ffffffffffffffffffffffffffffffffffffffff169060200190929190803515159060200190929190505050611db1565b6040518082815260200191505060405180910390f35b6107e9600480360381019080803590602001908201803590602001908080601f016020809104026020016040519081016040528093929190818152602001838380828437820191505050505050919291929080359060200190929190505050611fef565b604051808373ffffffffffffffffffffffffffffffffffffffff1673ffffffffffffffffffffffffffffffffffffffff168152602001821515151581526020019250505060405180910390f35b6108b0600480360381019080803590602001908201803590602001908080601f0160208091040260200160405190810160405280939291908181526020018383808284378201915050505050509192919290803573ffffffffffffffffffffffffffffffffffffffff1690602001909291905050506120f7565b604051808215151515815260200191505060405180910390f35b610924600480360381019080803590602001908201803590602001908080601f01602080910402602001604051908101604052809392919081815260200183838082843782019150505050505091929192905050506122c7565b6040518082815260200191505060405180910390f35b61096e600480360381019080803573ffffffffffffffffffffffffffffffffffffffff169060200190929190505050612348565b6040518082815260200191505060405180910390f35b6109b8600480360381019080803573ffffffffffffffffffffffffffffffffffffffff16906020019092919050505061254a565b6040518080602001828103825283818151815260200191508051906020019080838360005b838110156109f85780820151818401526020810190506109dd565b50505050905090810190601f168015610a255780820380516001836020036101000a031916815260200191505b509250505060405180910390f35b610a67600480360381019080803573ffffffffffffffffffffffffffffffffffffffff1690602001909291905050506126dd565b6040518082815260200191505060405180910390f35b610ae3600480360381019080803590602001908201803590602001908080601f01602080910402602001604051908101604052809392919081815260200183838082843782019150505050505091929192908035151590602001909291905050506127a4565b6040518082815260200191505060405180910390f35b348015610b0557600080fd5b50610b80600480360381019080803590602001908201803590602001908080601f0160208091040260200160405190810160405280939291908181526020018383808284378201915050505050509192919290803573ffffffffffffffffffffffffffffffffffffffff1690602001909291905050506129cc565b6040518080602001828103825283818151815260200191508051906020019080838360005b83811015610bc0578082015181840152602081019050610ba5565b50505050905090810190601f168015610bed5780820380516001836020036101000a031916815260200191505b509250505060405180910390f35b610c5f600480360381019080803590602001908201803590602001908080601f016020809104026020016040519081016040528093929190818152602001838380828437820191505050505050919291929080359060200190929190505050612b0e565b604051808273ffffffffffffffffffffffffffffffffffffffff1673ffffffffffffffffffffffffffffffffffffffff16815260200191505060405180910390f35b610d41600480360381019080803590602001908201803590602001908080601f0160208091040260200160405190810160405280939291908181526020018383808284378201915050505050509192919290803590602001908201803590602001908080601f0160208091040260200160405190810160405280939291908181526020018383808284378201915050505050509192919290505050612c32565b604051808215151515815260200191505060405180910390f35b610e1b600480360381019080803590602001908201803590602001908080601f0160208091040260200160405190810160405280939291908181526020018383808284378201915050505050509192919290803573ffffffffffffffffffffffffffffffffffffffff169060200190929190803590602001908201803590602001908080601f0160208091040260200160405190810160405280939291908181526020018383808284378201915050505050509192919290505050612d30565b6040518082815260200191505060405180910390f35b348015610e3d57600080fd5b50610e46612f12565b604051808215151515815260200191505060405180910390f35b610eba600480360381019080803590602001908201803590602001908080601f0160208091040260200160405190810160405280939291908181526020018383808284378201915050505050509192919290505050612fb8565b6040518082815260200191505060405180910390f35b610f34600480360381019080803590602001908201803590602001908080601f01602080910402602001604051908101604052809392919081815260200183838082843782019150505050505091929192908035906020019092919050505061305d565b6040518082815260200191505060405180910390f35b610fea600480360381019080803590602001908201803590602001908080601f0160208091040260200160405190810160405280939291908181526020018383808284378201915050505050509192919290803590602001908201803590602001908080601f016020809104026020016040519081016040528093929190818152602001838380828437820191505050505050919291929050505061306d565b6040518082815260200191505060405180910390f35b61105a600480360381019080803590602001908201803590602001908080601f016020809104026020016040519081016040528093929190818152602001838380828437820191505050505050919291929050505061317b565b6040518080602001828103825283818151815260200191508051906020019080838360005b8381101561109a57808201518184015260208101905061107f565b50505050905090810190601f1680156110c75780820380516001836020036101000a031916815260200191505b509250505060405180910390f35b61112f600480360381019080803590602001908201803590602001908080601f0160208091040260200160405190810160405280939291908181526020018383808284378201915050505050509192919290505050613220565b6040518082815260200191505060405180910390f35b606060008090505b600280549050811015611299578273ffffffffffffffffffffffffffffffffffffffff1660028281548110151561118057fe5b906000526020600020906005020160010160009054906101000a900473ffffffffffffffffffffffffffffffffffffffff1673ffffffffffffffffffffffffffffffffffffffff16141561128e576002818154811015156111dd57fe5b90600052602060002090600502016000018054600181600116156101000203166002900480601f0160208091040260200160405190810160405280929190818152602001828054600181600116156101000203166002900480156112825780601f1061125757610100808354040283529160200191611282565b820191906000526020600020905b81548152906001019060200180831161126557829003601f168201915b505050505091506112d2565b80600101905061114d565b6040805190810160405280600481526020017f6e756c6c0000000000000000000000000000000000000000000000000000000081525091505b50919050565b606060006112e4612f12565b1515611327576040805190810160405280600e81526020017f4163636573732064656e69656421000000000000000000000000000000000000815250915061146b565b600090505b6001805490508110156114325761136260018281548110151561134b57fe5b906000526020600020906006020160000184613454565b156114275760018181548110151561137657fe5b90600052602060002090600602016001018054600181600116156101000203166002900480601f01602080910402602001604051908101604052809291908181526020018280546001816001161561010002031660029004801561141b5780601f106113f05761010080835404028352916020019161141b565b820191906000526020600020905b8154815290600101906020018083116113fe57829003601f168201915b5050505050915061146b565b80600101905061132c565b6040805190810160405280601f81526020017f437573746f6d6572206e6f7420666f756e6420696e206461746162617365210081525091505b50919050565b600080600090505b600380549050811015611575576114af60038281548110151561149857fe5b906000526020600020906002020160000185613454565b801561152657508273ffffffffffffffffffffffffffffffffffffffff166003828154811015156114dc57fe5b906000526020600020906002020160010160009054906101000a900473ffffffffffffffffffffffffffffffffffffffff1673ffffffffffffffffffffffffffffffffffffffff16145b801561155c575060038181548110151561153c57fe5b906000526020600020906002020160010160149054906101000a900460ff165b1561156a576001915061157a565b806001019050611479565b600091505b5092915050565b60008061158c612f12565b151561159b576007915061177e565b600090505b6001805490508110156115ef576115d66001828154811015156115bf57fe5b906000526020600020906006020160000185613454565b156115e4576002915061177e565b8060010190506115a0565b6001805480919060010161160391906135d7565b5060018080549050101561161a576001915061177e565b60c06040519081016040528085815260200184815260200160648152602001600081526020013373ffffffffffffffffffffffffffffffffffffffff1681526020016040805190810160405280600481526020017f6e756c6c000000000000000000000000000000000000000000000000000000008152508152506001808080549050038154811015156116aa57fe5b906000526020600020906006020160008201518160000190805190602001906116d4929190613609565b5060208201518160010190805190602001906116f1929190613609565b50604082015181600201556060820151816003015560808201518160040160006101000a81548173ffffffffffffffffffffffffffffffffffffffff021916908373ffffffffffffffffffffffffffffffffffffffff16021790555060a0820151816005019080519060200190611769929190613609565b50905050611778336001611db1565b50600091505b5092915050565b600080600091505b6003805490508210156119c7576117c36003838154811015156117ac57fe5b906000526020600020906002020160000186613454565b801561183a57508373ffffffffffffffffffffffffffffffffffffffff166003838154811015156117f057fe5b906000526020600020906002020160010160009054906101000a900473ffffffffffffffffffffffffffffffffffffffff1673ffffffffffffffffffffffffffffffffffffffff16145b156119bc57821561188357600160038381548110151561185657fe5b906000526020600020906002020160010160146101000a81548160ff0219169083151502179055506119b7565b8190505b6001600380549050038110156119a0576003600182018154811015156118a957fe5b90600052602060002090600202016003828154811015156118c657fe5b9060005260206000209060020201600082018160000190805460018160011615610100020316600290046118fb929190613689565b506001820160009054906101000a900473ffffffffffffffffffffffffffffffffffffffff168160010160006101000a81548173ffffffffffffffffffffffffffffffffffffffff021916908373ffffffffffffffffffffffffffffffffffffffff1602179055506001820160149054906101000a900460ff168160010160146101000a81548160ff0219169083151502179055509050508080600101915050611887565b60038054809190600190036119b59190613710565b505b6119c8565b81600101915061178d565b5b5050505050565b6000809054906101000a900473ffffffffffffffffffffffffffffffffffffffff1673ffffffffffffffffffffffffffffffffffffffff163373ffffffffffffffffffffffffffffffffffffffff161415611a5e576000809054906101000a900473ffffffffffffffffffffffffffffffffffffffff1673ffffffffffffffffffffffffffffffffffffffff16ff5b565b600080600090505b600180549050811015611b1f57611a9e600182815481101515611a8757fe5b906000526020600020906006020160000185613454565b8015611acf5750611ace600182815481101515611ab757fe5b906000526020600020906006020160050184613454565b5b15611add5760019150611b24565b611b06600182815481101515611aef57fe5b906000526020600020906006020160000185613454565b15611b145760009150611b24565b806001019050611a68565b600091505b5092915050565b600080600090505b600280549050811015611be7578273ffffffffffffffffffffffffffffffffffffffff16600282815481101515611b6657fe5b906000526020600020906005020160010160009054906101000a900473ffffffffffffffffffffffffffffffffffffffff1673ffffffffffffffffffffffffffffffffffffffff161415611bdc57600281815481101515611bc357fe5b9060005260206000209060050201600301549150611bec565b806001019050611b33565b600091505b50919050565b600080600090505b600280549050811015611c8857611c30600282815481101515611c1957fe5b906000526020600020906005020160000184613454565b15611c7d57600281815481101515611c4457fe5b906000526020600020906005020160010160009054906101000a900473ffffffffffffffffffffffffffffffffffffffff169150611ca0565b806001019050611bfa565b7314e041521a40e32ed88b22c0f32469f5406d757a91505b50919050565b6000806000809150600090505b600380549050811015611d9157611ce9600382815481101515611cd257fe5b906000526020600020906002020160000186613454565b8015611cf457508382145b8015611d31575060001515600382815481101515611d0e57fe5b906000526020600020906002020160010160149054906101000a900460ff161515145b15611d7e57600381815481101515611d4557fe5b906000526020600020906002020160010160009054906101000a900473ffffffffffffffffffffffffffffffffffffffff169250611da9565b8180600101925050806001019050611cb3565b7314e041521a40e32ed88b22c0f32469f5406d757a92505b505092915050565b600080600090505b600280549050811015611fe3578373ffffffffffffffffffffffffffffffffffffffff16600282815481101515611dec57fe5b906000526020600020906005020160010160009054906101000a900473ffffffffffffffffffffffffffffffffffffffff1673ffffffffffffffffffffffffffffffffffffffff161415611fd8578215611f2157600281815481101515611e4f57fe5b906000526020600020906005020160030160008154809291906001019190505550600281815481101515611e7f57fe5b9060005260206000209060050201600301546064811515611e9c57fe5b04600282815481101515611eac57fe5b9060005260206000209060050201600201600082825401925050819055506101f4600282815481101515611edc57fe5b9060005260206000209060050201600201541115611f1c576101f4600282815481101515611f0657fe5b9060005260206000209060050201600201819055505b611fcf565b6001600282815481101515611f3257fe5b906000526020600020906005020160030154016064811515611f5057fe5b04600282815481101515611f6057fe5b9060005260206000209060050201600201600082825403925050819055506000600282815481101515611f8f57fe5b9060005260206000209060050201600201541015611fce576000600282815481101515611fb857fe5b9060005260206000209060050201600201819055505b5b60009150611fe8565b806001019050611db9565b600191505b5092915050565b60008060008060009150600090505b6003805490508110156120cf5761203460038281548110151561201d57fe5b906000526020600020906002020160000187613454565b801561203f57508482145b156120bc5760038181548110151561205357fe5b906000526020600020906002020160010160009054906101000a900473ffffffffffffffffffffffffffffffffffffffff1660038281548110151561209457fe5b906000526020600020906002020160010160149054906101000a900460ff16935093506120ee565b8180600101925050806001019050611ffe565b7314e041521a40e32ed88b22c0f32469f5406d757a6001819150935093505b50509250929050565b600080600090505b6003805490508110156121c55761213560038281548110151561211e57fe5b906000526020600020906002020160000185613454565b80156121ac57508273ffffffffffffffffffffffffffffffffffffffff1660038281548110151561216257fe5b906000526020600020906002020160010160009054906101000a900473ffffffffffffffffffffffffffffffffffffffff1673ffffffffffffffffffffffffffffffffffffffff16145b156121ba57600091506122c0565b8060010190506120ff565b600380548091906001016121d99190613710565b506060604051908101604052808581526020018473ffffffffffffffffffffffffffffffffffffffff16815260200160001515815250600360016003805490500381548110151561222657fe5b90600052602060002090600202016000820151816000019080519060200190612250929190613609565b5060208201518160010160006101000a81548173ffffffffffffffffffffffffffffffffffffffff021916908373ffffffffffffffffffffffffffffffffffffffff16021790555060408201518160010160146101000a81548160ff021916908315150217905550905050600191505b5092915050565b600080600090505b60018054905081101561233d576123056001828154811015156122ee57fe5b906000526020600020906006020160000184613454565b156123325760018181548110151561231957fe5b9060005260206000209060060201600201549150612342565b8060010190506122cf565b600091505b50919050565b6000806000612355612f12565b15156123645760079250612543565b600091505b60028054905082101561253e578373ffffffffffffffffffffffffffffffffffffffff1660028381548110151561239c57fe5b906000526020600020906005020160010160009054906101000a900473ffffffffffffffffffffffffffffffffffffffff1673ffffffffffffffffffffffffffffffffffffffff161415612533576001820190505b6002805490508110156125145760028281548110151561240d57fe5b906000526020600020906005020160026001840381548110151561242d57fe5b906000526020600020906005020160008201816000019080546001816001161561010002031660029004612462929190613689565b506001820160009054906101000a900473ffffffffffffffffffffffffffffffffffffffff168160010160006101000a81548173ffffffffffffffffffffffffffffffffffffffff021916908373ffffffffffffffffffffffffffffffffffffffff160217905550600282015481600201556003820154816003015560048201816004019080546001816001161561010002031660029004612505929190613689565b509050508060010190506123f1565b60028054809190600190036125299190613742565b5060009250612543565b816001019150612369565b600192505b5050919050565b606060008090505b60028054905081101561269e578273ffffffffffffffffffffffffffffffffffffffff1660028281548110151561258557fe5b906000526020600020906005020160010160009054906101000a900473ffffffffffffffffffffffffffffffffffffffff1673ffffffffffffffffffffffffffffffffffffffff161415612693576002818154811015156125e257fe5b90600052602060002090600502016004018054600181600116156101000203166002900480601f0160208091040260200160405190810160405280929190818152602001828054600181600116156101000203166002900480156126875780601f1061265c57610100808354040283529160200191612687565b820191906000526020600020905b81548152906001019060200180831161266a57829003601f168201915b505050505091506126d7565b806001019050612552565b6040805190810160405280600481526020017f6e756c6c0000000000000000000000000000000000000000000000000000000081525091505b50919050565b600080600090505b600280549050811015612799578273ffffffffffffffffffffffffffffffffffffffff1660028281548110151561271857fe5b906000526020600020906005020160010160009054906101000a900473ffffffffffffffffffffffffffffffffffffffff1673ffffffffffffffffffffffffffffffffffffffff16141561278e5760028181548110151561277557fe5b906000526020600020906005020160030154915061279e565b8060010190506126e5565b600091505b50919050565b600080600090505b6001805490508110156129c0576127e26001828154811015156127cb57fe5b906000526020600020906006020160000185613454565b156129b55782156128ce576001818154811015156127fc57fe5b90600052602060002090600602016003016000815480929190600101919050555060018181548110151561282c57fe5b906000526020600020906006020160030154606481151561284957fe5b0460018281548110151561285957fe5b9060005260206000209060060201600201600082825401925050819055506101f460018281548110151561288957fe5b90600052602060002090600602016002015411156128c9576101f46001828154811015156128b357fe5b9060005260206000209060060201600201819055505b6129ac565b6001818154811015156128dd57fe5b906000526020600020906006020160030160008154809291906001900391905055506001808281548110151561290f57fe5b90600052602060002090600602016003015401606481151561292d57fe5b0460018281548110151561293d57fe5b906000526020600020906006020160020160008282540392505081905550600060018281548110151561296c57fe5b90600052602060002090600602016002015410156129ab57600060018281548110151561299557fe5b9060005260206000209060060201600201819055505b5b600091506129c5565b8060010190506127ac565b600191505b5092915050565b606060008090505b600280549050811015612ace578273ffffffffffffffffffffffffffffffffffffffff16600282815481101515612a0757fe5b906000526020600020906005020160010160009054906101000a900473ffffffffffffffffffffffffffffffffffffffff1673ffffffffffffffffffffffffffffffffffffffff16148015612a815750612a80600282815481101515612a6957fe5b906000526020600020906005020160000185613454565b5b15612ac3576040805190810160405280600181526020017f30000000000000000000000000000000000000000000000000000000000000008152509150612b07565b8060010190506129d4565b6040805190810160405280600481526020017f6e756c6c0000000000000000000000000000000000000000000000000000000081525091505b5092915050565b6000806000809150600090505b600380549050811015612c1257612b51600382815481101515612b3a57fe5b906000526020600020906002020160000186613454565b8015612b5c57508382145b15612bff5760001515600382815481101515612b7457fe5b906000526020600020906002020160010160149054906101000a900460ff1615151415612be357600381815481101515612baa57fe5b906000526020600020906002020160010160009054906101000a900473ffffffffffffffffffffffffffffffffffffffff169250612c2a565b7314e041521a40e32ed88b22c0f32469f5406d757b9250612c2a565b8180600101925050806001019050612b1b565b7314e041521a40e32ed88b22c0f32469f5406d757a92505b505092915050565b600080600090505b600180549050811015612d2457612c70600182815481101515612c5957fe5b906000526020600020906006020160000185613454565b8015612cd65750612cd5600182815481101515612c8957fe5b90600052602060002090600602016005016040805190810160405280600481526020017f6e756c6c00000000000000000000000000000000000000000000000000000000815250613454565b5b15612d195782600182815481101515612ceb57fe5b90600052602060002090600602016005019080519060200190612d0f929190613774565b5060019150612d29565b806001019050612c3a565b600091505b5092915050565b60007fe0bfb40a6a772f6cac73ab5c02b781bb40e1a4fea7bd84066a7a430cc224d0bd846040518080602001828103825283818151815260200191508051906020019080838360005b83811015612d94578082015181840152602081019050612d79565b50505050905090810190601f168015612dc15780820380516001836020036101000a031916815260200191505b509250505060405180910390a160006002805490501480612de65750612de5612f12565b5b15612f065760028054809190600101612dff9190613742565b5060a0604051908101604052808581526020018473ffffffffffffffffffffffffffffffffffffffff16815260200160c8815260200160008152602001838152506002600160028054905003815481101515612e5757fe5b90600052602060002090600502016000820151816000019080519060200190612e81929190613609565b5060208201518160010160006101000a81548173ffffffffffffffffffffffffffffffffffffffff021916908373ffffffffffffffffffffffffffffffffffffffff16021790555060408201518160020155606082015181600301556080820151816004019080519060200190612ef9929190613609565b5090505060009050612f0b565b600790505b9392505050565b600080600090505b600280549050811015612faf573373ffffffffffffffffffffffffffffffffffffffff16600282815481101515612f4d57fe5b906000526020600020906005020160010160009054906101000a900473ffffffffffffffffffffffffffffffffffffffff1673ffffffffffffffffffffffffffffffffffffffff161415612fa45760019150612fb4565b806001019050612f1a565b600091505b5090565b600080600090505b60018054905081101561305657612ff6600182815481101515612fdf57fe5b906000526020600020906006020160000184613454565b1561304b5761304460018281548110151561300d57fe5b906000526020600020906006020160040160009054906101000a900473ffffffffffffffffffffffffffffffffffffffff166126dd565b9150613057565b806001019050612fc0565b5b50919050565b6000600380549050905092915050565b600080613078612f12565b15156130875760079150613174565b600090505b60018054905081101561316f576130c26001828154811015156130ab57fe5b906000526020600020906006020160000185613454565b1561316457826001828154811015156130d757fe5b906000526020600020906006020160010190805190602001906130fb929190613774565b503360018281548110151561310c57fe5b906000526020600020906006020160040160006101000a81548173ffffffffffffffffffffffffffffffffffffffff021916908373ffffffffffffffffffffffffffffffffffffffff16021790555060009150613174565b80600101905061308c565b600191505b5092915050565b606060008090505b600180549050811015613219576131b96001828154811015156131a257fe5b906000526020600020906006020160000184613454565b1561320e576132076001828154811015156131d057fe5b906000526020600020906006020160040160009054906101000a900473ffffffffffffffffffffffffffffffffffffffff16611145565b915061321a565b806001019050613183565b5b50919050565b60008060008061322e612f12565b151561323d576007935061344c565b600092505b6001805490508310156134475761327860018481548110151561326157fe5b906000526020600020906006020160000186613454565b1561343c5760018381548110151561328c57fe5b906000526020600020906006020160040160009054906101000a900473ffffffffffffffffffffffffffffffffffffffff1691506001830190505b600180549050811015613411576001838154811015156132e357fe5b9060005260206000209060060201600180850381548110151561330257fe5b906000526020600020906006020160008201816000019080546001816001161561010002031660029004613337929190613689565b506001820181600101908054600181600116156101000203166002900461335f929190613689565b5060028201548160020155600382015481600301556004820160009054906101000a900473ffffffffffffffffffffffffffffffffffffffff168160040160006101000a81548173ffffffffffffffffffffffffffffffffffffffff021916908373ffffffffffffffffffffffffffffffffffffffff16021790555060058201816005019080546001816001161561010002031660029004613402929190613689565b509050508060010190506132c7565b600180548091906001900361342691906135d7565b50613432826000611db1565b506000935061344c565b826001019250613242565b600193505b505050919050565b6000806060600085925084915081518380546001816001161561010002031660029004905014151561348957600093506135ce565b600090505b828054600181600116156101000203166002900490508110156135c95781818151811015156134b957fe5b9060200101517f010000000000000000000000000000000000000000000000000000000000000090047f0100000000000000000000000000000000000000000000000000000000000000027effffffffffffffffffffffffffffffffffffffffffffffffffffffffffffff19168382815460018160011615610100020316600290048110151561354557fe5b8154600116156135645790600052602060002090602091828204019190065b9054901a7f0100000000000000000000000000000000000000000000000000000000000000027effffffffffffffffffffffffffffffffffffffffffffffffffffffffffffff19161415156135bc57600093506135ce565b808060010191505061348e565b600193505b50505092915050565b8154818355818111156136045760060281600602836000526020600020918201910161360391906137f4565b5b505050565b828054600181600116156101000203166002900490600052602060002090601f016020900481019282601f1061364a57805160ff1916838001178555613678565b82800160010185558215613678579182015b8281111561367757825182559160200191906001019061365c565b5b509050613685919061387a565b5090565b828054600181600116156101000203166002900490600052602060002090601f016020900481019282601f106136c257805485556136ff565b828001600101855582156136ff57600052602060002091601f016020900482015b828111156136fe5782548255916001019190600101906136e3565b5b50905061370c919061387a565b5090565b81548183558181111561373d5760020281600202836000526020600020918201910161373c919061389f565b5b505050565b81548183558181111561376f5760050281600502836000526020600020918201910161376e9190613909565b5b505050565b828054600181600116156101000203166002900490600052602060002090601f016020900481019282601f106137b557805160ff19168380011785556137e3565b828001600101855582156137e3579182015b828111156137e25782518255916020019190600101906137c7565b5b5090506137f0919061387a565b5090565b61387791905b808211156138735760008082016000613813919061397f565b600182016000613823919061397f565b600282016000905560038201600090556004820160006101000a81549073ffffffffffffffffffffffffffffffffffffffff021916905560058201600061386a919061397f565b506006016137fa565b5090565b90565b61389c91905b80821115613898576000816000905550600101613880565b5090565b90565b61390691905b8082111561390257600080820160006138be919061397f565b6001820160006101000a81549073ffffffffffffffffffffffffffffffffffffffff02191690556001820160146101000a81549060ff0219169055506002016138a5565b5090565b90565b61397c91905b808211156139785760008082016000613928919061397f565b6001820160006101000a81549073ffffffffffffffffffffffffffffffffffffffff02191690556002820160009055600382016000905560048201600061396f919061397f565b5060050161390f565b5090565b90565b50805460018160011615610100020316600290046000825580601f106139a557506139c4565b601f0160209004906000526020600020908101906139c3919061387a565b5b505600a165627a7a72305820df213f2d2093d51017fcceda98ef8f40bebf616e8dc135735bd3f4ab15c341550029",
  "source": "pragma solidity ^0.4.4;\n\n\ncontract owned {\n\tfunction owned() { owner = msg.sender ;}  \n\taddress owner;\n}\n\n/** @title kyc onboarding contract */\ncontract kyc is owned {\n\n    //  Struct customer\n    //  uname - username of the customer\n    //  dataHash - customer data\n    //  rating - rating given to customer given based on regularity\n    //  upvotes - number of upvotes recieved from banks\n    //  bank - address of bank that validated the customer account\n\n    struct Customer {\n        string uname;\n        string dataHash;\n        uint rating;\n        uint upvotes;\n        address bank;\n        string password;\n    }\n\n    //  Struct Organisation\n    //  name - name of the bank/organisation\n    //  ethAddress - ethereum address of the bank/organisation\n    //  rating - rating based on number of valid/invalid verified accounts\n    //  KYC_count - number of KYCs verified by the bank/organisation\n\n    struct Organisation {\n        string name;\n        address ethAddress;\n        uint rating;\n        uint KYC_count;\n        string regNumber;\n    }\n\n    struct Request {\n        string uname;\n        address bankAddress;\n        bool isAllowed;\n    }\n\n    //  list of all customers\n\n    Customer[] allCustomers;\n\n    //  list of all Banks/Organisations\n\n    Organisation[] allOrgs;\n\n\n    Request[] allRequests;\n\n    event addBankEvent ( string uname);\n    \n\n    /** @dev check if financial institution/bank is authorised by client to view kyc details.\n      * @param Uname Name of the customer.\n      * @param bankAddress Ethereum account for the bank.\n      * @return bool True if allowed and false if not allowed\n      */\n    function ifAllowed(string Uname, address bankAddress) public payable returns(bool) {\n        for(uint i = 0; i < allRequests.length; ++i) {\n            if(stringsEqual(allRequests[i].uname, Uname) && allRequests[i].bankAddress == bankAddress && allRequests[i].isAllowed) {\n                return true;\n            }\n        }\n        return false;\n    }\n\n\n    /** @dev Get list of all access requests from financial institution/banks interested in KYC details of the customer.\n      * @param Uname Name of the customer.\n      * @param ind iterator sent from ui.\n      * @return address Ethereum account of financial institution/bank for approval/rejection and 0x14e041521a40e32ed88b22c0f32469f5406d757a if not requests are pending.\n      */\n  function getBankRequests1(string Uname, uint ind) public payable returns(address) {\n        uint j = 0;\n        for(uint i=0;i<allRequests.length;++i) {\n            if(stringsEqual(allRequests[i].uname, Uname) && j == ind && allRequests[i].isAllowed == false) {\n                return allRequests[i].bankAddress;\n            }\n            j ++;\n        }\n        return 0x14e041521a40e32ed88b22c0f32469f5406d757a;\n    }\n\n    /** @dev Not used however kept for reference **/ \n    function getBankRequests(string Uname, uint ind) public payable returns(address) {\n        uint j = 0;\n        for(uint i=0;i<allRequests.length;++i) {\n            if(stringsEqual(allRequests[i].uname, Uname) && j == ind ) { \n\t\t\t\tif(allRequests[i].isAllowed == false) {\n                \t\treturn allRequests[i].bankAddress;\n\t\t\t\t\t}\n\t\t\t\t\telse {\n\t\t\t\t\t\treturn 0x14e041521a40e32ed88b22c0f32469f5406d757b;\n\t\t\t\t\t}\n            \t}\n            j ++;\n        }\n        return 0x14e041521a40e32ed88b22c0f32469f5406d757a;\n    }\n\n    /** @dev Not used however kept for reference **/ \n    function getBankRequestsDetails(string Uname, uint ind) public payable returns(address,bool) {\n        uint j = 0;\n        for(uint i=0;i<allRequests.length;++i) {\n            if(stringsEqual(allRequests[i].uname, Uname) && j == ind) {\n                return (allRequests[i].bankAddress,allRequests[i].isAllowed);\n            }\n            j ++;\n        }\n        return (0x14e041521a40e32ed88b22c0f32469f5406d757a,true);\n    }\n\n\n    /** @dev Get the count of KYC access request to be approved by the customer.\n      * @param Uname Name of the customer.\n      * @param ind Currently not used.\n      * @return uint Count of access request pending approval/rejection from client.\n      */\n    function getBankRequestsCount(string Uname, uint ind) public payable returns(uint) {\n        return allRequests.length;\n    }\n\n\n    /** @dev Add access request from financial institution/banks interested in KYC details of the customer.\n      * @param Uname Name of the customer.\n      * @param bankAddress Ethereum account of financial institution/bank which has tried to access KYC details of customer.\n      * @return bool True is request is added successfully & false if request already exists.\n      */\n    function addRequest(string Uname, address bankAddress) public payable returns(bool){\n        for(uint i = 0; i < allRequests.length; ++ i) {\n            if(stringsEqual(allRequests[i].uname, Uname) && allRequests[i].bankAddress == bankAddress) {\n                return false;\n            }\n        }\n        allRequests.length ++;\n        allRequests[allRequests.length - 1] = Request(Uname, bankAddress, false);\n\treturn true;\n    }\n\n    /** @dev Approve/Reject KYC access request for financial institution/bank by customer\n      * @param Uname Name of the customer.\n      * @param bankAddress Ethereum account of financial institution/bank which has tried to access KYC details of customer.\n      * @param bankAddress True if customer approves kyc acess request & false otherwise.\n      */\n    function allowBank(string Uname, address bankAddress, bool ifallowed) public payable {\n        for(uint i = 0; i < allRequests.length; ++ i) {\n            if(stringsEqual(allRequests[i].uname, Uname) && allRequests[i].bankAddress == bankAddress) {\n                if(ifallowed) {\n                    allRequests[i].isAllowed = true;\n                } else {\n                    for(uint j=i;j<allRequests.length-1; j++) {\n                        allRequests[j] = allRequests[j+1];\n                    }\n                    allRequests.length --;\n                }\n                return;\n            }\n        }\n    }\n\n    //   internal function to compare strings\n    function stringsEqual(string storage _a, string memory _b) internal returns (bool) {\n\t\tbytes storage a = bytes(_a);\n\t\tbytes memory b = bytes(_b);\n\t\tif (a.length != b.length)\n\t\t\treturn false;\n\t\t// @todo unroll this loop\n\t\tfor (uint i = 0; i < a.length; i ++)\n        {\n\t\t\tif (a[i] != b[i])\n\t\t\t\treturn false;\n        }\n\t\treturn true;\n\t}\n\n\n    /** @dev function to check access rights of transaction request sender\n      * @return true  if successfull, false otherwise \n\t*/\n    function isPartOfOrg() public view returns(bool) {\n        for(uint i = 0; i < allOrgs.length; ++ i) {\n            if(allOrgs[i].ethAddress == msg.sender)\n                return true;\n        }\n        return false;\n    }\n\n    /** @dev function that adds an organisation to the network.no check on access rights if network strength in zero\n      * @param uname Name of the customer\n      * @param eth Ethereum account of financial institution/bank as password\n      * @param regNum Registration authority/number\n      * @return uint 0 if successfull,if no access rights to transaction request sender\n      */\n    function addBank(string uname, address eth, string regNum) public payable returns(uint) {\n\temit addBankEvent ( uname);\n        if(allOrgs.length == 0 || isPartOfOrg()) {\n            allOrgs.length ++;\n            allOrgs[allOrgs.length - 1] = Organisation(uname, eth, 200, 0, regNum);\n            return 0;\n        }\n\n        return 7;\n    }\n\n    /** @dev function that removes an organisation from the network\n      * @param eth Ethereum account of financial institution/bank\n      * @return uint 0 if successfull,7 if no access rights to transaction request sender,1 if organisation to be removed not part of network\n      */\n    function removeBank(address eth) public payable returns(uint) {\n        if(!isPartOfOrg())\n            return 7;\n        for(uint i = 0; i < allOrgs.length; ++ i) {\n            if(allOrgs[i].ethAddress == eth) {\n                for(uint j = i+1;j < allOrgs.length; ++ j) {\n                    allOrgs[i-1] = allOrgs[i];\n                }\n                allOrgs.length --;\n                return 0;\n            }\n        }\n        return 1;\n    }\n\n    /** @dev function that adds a customer profile to network\n      * @param Uname Name of the customer\n      * @param DataHash KYC details of cutomer is form of demiliter based string\n      * @return uint 0 if successfull, 7 if no access rights to transaction request sender,1 if size limit of the database is reached,2 if customer already in network\n      */\n\n    function addCustomer(string Uname, string DataHash) public payable returns(uint) {\n        if(!isPartOfOrg())\n            return 7;\n        //  throw error if username already in use\n        for(uint i = 0;i < allCustomers.length; ++ i) {\n            if(stringsEqual(allCustomers[i].uname, Uname))\n                return 2;\n        }\n        allCustomers.length ++;\n        //  throw error if there is overflow in uint\n        if(allCustomers.length < 1)\n            return 1;\n        allCustomers[allCustomers.length-1] = Customer(Uname, DataHash, 100, 0, msg.sender, \"null\");\n        updateRating(msg.sender,true);\n        return 0;\n    }\n\n    /** @dev function to remove fraudulent customer profile from the database\n      * @param Uname Name of the customer\n      * @return uint 0 if successfull, 7 if no access rights to transaction request sender,1 if size limit of the database is reached,1 if customer profile not in database\n      */\n\n    function removeCustomer(string Uname) public payable returns(uint) {\n        if(!isPartOfOrg())\n            return 7;\n        for(uint i = 0; i < allCustomers.length; ++ i) {\n            if(stringsEqual(allCustomers[i].uname, Uname)) {\n                address a = allCustomers[i].bank;\n                for(uint j = i+1;j < allCustomers.length; ++ j) {\n                    allCustomers[i-1] = allCustomers[i];\n                }\n                allCustomers.length --;\n                updateRating(a,false);\n                //  updateRating(msg.sender, true);\n                return 0;\n            }\n        }\n        //  throw error if uname not found\n        return 1;\n    }\n\n    /** @dev function to function to modify a customer profile in database\n      * @param Uname Name of the customer\n      * @param DataHash modified KYC details of cutomer is form of demiliter based string\n      * @return uint 0 if successfull, 7 if no access rights to transaction request sender,1 if size limit of the database is reached,1 if customer profile not in database\n      */\n\n    function modifyCustomer(string Uname,string DataHash) public payable returns(uint) {\n        if(!isPartOfOrg())\n            return 7;\n        for(uint i = 0; i < allCustomers.length; ++ i) {\n            if(stringsEqual(allCustomers[i].uname, Uname)) {\n                allCustomers[i].dataHash = DataHash;\n                allCustomers[i].bank = msg.sender;\n                return 0;\n            }\n        }\n        //  throw error if uname not found\n        return 1;\n    }\n\n    /** @dev function to return customer profile data\n      * @param Uname Name of the customer\n      * @return string delimited KYC details of customer if successfull, Access Denied - if no access rights to transaction request sender, customer profile not in database\n      */\n\n    function viewCustomer(string Uname) public payable returns(string) {\n        if(!isPartOfOrg())\n            return \"Access denied!\";\n        for(uint i = 0; i < allCustomers.length; ++ i) {\n            if(stringsEqual(allCustomers[i].uname, Uname)) {\n                return allCustomers[i].dataHash;\n            }\n        }\n        return \"Customer not found in database!\";\n    }\n\n    /** @dev function to modify customer rating\n      * @param Uname Name of the customer\n      * @param ifIncrease true if rating needs to be increased or decrease otherwise \n      * @return 0 if successful ,  1 if bank is not found\n      */\n    function updateRatingCustomer(string Uname, bool ifIncrease) public payable returns(uint) {\n        for(uint i = 0; i < allCustomers.length; ++ i) {\n            if(stringsEqual(allCustomers[i].uname, Uname)) {\n                //update rating\n                if(ifIncrease) {\n                    allCustomers[i].upvotes ++;\n                    allCustomers[i].rating += 100/(allCustomers[i].upvotes);\n                    if(allCustomers[i].rating > 500) {\n                        allCustomers[i].rating = 500;\n                    }\n                }\n                else {\n                    allCustomers[i].upvotes --;\n                    allCustomers[i].rating -= 100/(allCustomers[i].upvotes + 1);\n                    if(allCustomers[i].rating < 0) {\n                        allCustomers[i].rating = 0;\n                    }\n                }\n                return 0;\n            }\n        }\n        //  throw error if bank not found\n        return 1;\n    }\n\n    /** @dev function to update organisation rating\n      * @param bankAddress Ethereum account of financial institution/bank\n      * @param ifAdded true  indicates a succesfull addition of KYC profile\n      * @return 0 if successful ,  1 if bank is not found\n      */\n\n    function updateRating(address bankAddress,bool ifAdded) public payable returns(uint) {\n        for(uint i = 0; i < allOrgs.length; ++ i) {\n            if(allOrgs[i].ethAddress == bankAddress) {\n                //update rating\n                if(ifAdded) {\n                    allOrgs[i].KYC_count ++;\n                    allOrgs[i].rating += 100/(allOrgs[i].KYC_count);\n                    if(allOrgs[i].rating > 500) {\n                        allOrgs[i].rating = 500;\n                    }\n                }\n                else {\n                    //  allOrgs[i].KYC_count --;\n                    allOrgs[i].rating -= 100/(allOrgs[i].KYC_count + 1);\n                    if(allOrgs[i].rating < 0) {\n                        allOrgs[i].rating = 0;\n                    }\n                }\n                return 0;\n            }\n        }\n        //  throw error if bank not found\n        return 1;\n    }\n\n    /** @dev function to to validate bank log in\n      * @param Uname Name of the Bank\n      * @param password Ethereum account of financial institution/bank\n      * @return string \"0\" if successful ,  null if fails\n      */\n    function checkBank(string Uname, address password) public view returns(string) {\n        for(uint i = 0; i < allOrgs.length; ++ i) {\n            if(allOrgs[i].ethAddress == password && stringsEqual(allOrgs[i].name, Uname)) {\n                return \"0\";\n            }\n        }\n        return \"null\";\n    }\n\n    /** @dev function to validate customer log in\n      * @param Uname Name of the Customer\n      * @param password Password for the customer\n      * @return book true if successful ,  false if fails\n      */\n    function checkCustomer(string Uname, string password) public view  returns(bool) {\n        for(uint i = 0; i < allCustomers.length; ++ i) {\n            if(stringsEqual(allCustomers[i].uname, Uname) && stringsEqual(allCustomers[i].password, password)) {\n                return true;\n            }\n            if(stringsEqual(allCustomers[i].uname, Uname)) {\n                return false;\n            }\n        }\n        return false;\n    }\n\n    /** @dev function to set password for the customer\n      * @param Uname Name of the Customer\n      * @param password Password for the customer\n      * @return book true if successful ,  false if fails\n      */\n    function setPassword(string Uname, string password) public payable returns(bool) {\n        for(uint i=0;i < allCustomers.length; ++ i) {\n            if(stringsEqual(allCustomers[i].uname, Uname) && stringsEqual(allCustomers[i].password, \"null\")) {\n                allCustomers[i].password = password;\n                return true;\n            }\n        }\n        return false;\n    }\n\n    /** @dev function to get bank name\n      * @param ethAcc Ethereum account for the bank\n      * @return string name if successful ,  null if fails\n      */\n\n    function getBankName(address ethAcc) public payable returns(string) {\n        for(uint i = 0; i < allOrgs.length; ++ i) {\n            if(allOrgs[i].ethAddress == ethAcc) {\n                return allOrgs[i].name;\n            }\n        }\n        return \"null\";\n    }\n\n    /** @dev function to get bank account\n      * @param uname Name of the bank\n      * @return address account if successful ,  0x14e041521a40e32ed88b22c0f32469f5406d757a if fails\n      */\n    function getBankEth(string uname) public payable returns(address) {\n        for(uint i = 0; i < allOrgs.length; ++ i) {\n            if(stringsEqual(allOrgs[i].name, uname)) {\n                return allOrgs[i].ethAddress;\n            }\n        }\n        return 0x14e041521a40e32ed88b22c0f32469f5406d757a;\n    }\n\n    /** @dev function to get bank name of customer \n      * @param Uname Name of the customer\n      * @return string name if successful\n      */\n    function getCustomerBankName(string Uname) public payable returns(string) {\n        for(uint i = 0;i < allCustomers.length; ++ i) {\n            if(stringsEqual(allCustomers[i].uname, Uname)) {\n                return getBankName(allCustomers[i].bank);\n            }\n        }\n    }\n\n    /** @dev function to get bank reg number of bank \n      * @param ethAcc Ethereum account of the bank \n      * @return string regNumber if successful, null if fails\n      */\n    function getBankReg(address ethAcc) public payable returns(string) {\n        for(uint i = 0; i < allOrgs.length; ++ i) {\n            if(allOrgs[i].ethAddress == ethAcc) {\n                return allOrgs[i].regNumber;\n            }\n        }\n        return \"null\";\n    }\n\n    /** @dev function to get bank KYC count \n      * @param ethAcc Ethereum account of the bank \n      * @return uint count of KYC if successful, 0 otherwise\n      */\n    function getBankKYC(address ethAcc) public payable returns(uint) {\n        for(uint i = 0; i < allOrgs.length; ++ i) {\n            if(allOrgs[i].ethAddress == ethAcc) {\n                return allOrgs[i].KYC_count;\n            }\n        }\n        return 0;\n    }\n\n    /** @dev function to get bank rating\n      * @param ethAcc Ethereum account of the bank \n      * @return uint rating of bank \n      */\n    function getBankRating(address ethAcc) public payable returns(uint) {\n        for(uint i = 0; i < allOrgs.length; ++ i) {\n            if(allOrgs[i].ethAddress == ethAcc) {\n                //return allOrgs[i].rating;\n                return allOrgs[i].KYC_count;\n            }\n        }\n        return 0;\n    }\n\n    /** @dev function to get bank rating\n      * @param Uname Name of the customer \n      * @return uint rating of bank \n      */\n    function getCustomerBankRating(string Uname) public payable returns(uint) {\n        for(uint i = 0;i < allCustomers.length; ++ i) {\n            if(stringsEqual(allCustomers[i].uname, Uname)) {\n                return getBankRating(allCustomers[i].bank);\n            }\n        }\n    }\n\n    /** @dev function to get customer rating\n      * @param Uname Name of the customer \n      * @return uint rating of customer,0 otherwise \n      */\n    function getCustomerRating(string Uname) public payable returns(uint) {\n        for(uint i = 0; i < allCustomers.length; ++ i) {\n            if(stringsEqual(allCustomers[i].uname, Uname)) {\n                return allCustomers[i].rating;\n            }\n        }\n        return 0;\n    }\n\n    /** @dev function to kill contract\n      */\n\tfunction kill(){\n\tif(msg.sender ==owner)  selfdestruct(owner);\n\t}\n}\n",
  "sourcePath": "/home/kartikeya/Ethereum/Ethereum/Consensys/KYC_FinalProject/contracts/kyc.sol",
  "compiler": {
    "name": "solc",
    "version": "0.4.25+commit.59dbf8f1.Emscripten.clang"
  },
  "schemaVersion": "3.0.1",
  "updatedAt": "2019-01-28T06:37:11.955Z",
  "devdoc": {
    "methods": {
      "addBank(string,address,string)": {
        "details": "function that adds an organisation to the network.no check on access rights if network strength in zero",
        "params": {
          "eth": "Ethereum account of financial institution/bank as password",
          "regNum": "Registration authority/number",
          "uname": "Name of the customer"
        },
        "return": "uint 0 if successfull,if no access rights to transaction request sender"
      },
      "addCustomer(string,string)": {
        "details": "function that adds a customer profile to network",
        "params": {
          "DataHash": "KYC details of cutomer is form of demiliter based string",
          "Uname": "Name of the customer"
        },
        "return": "uint 0 if successfull, 7 if no access rights to transaction request sender,1 if size limit of the database is reached,2 if customer already in network"
      },
      "addRequest(string,address)": {
        "details": "Add access request from financial institution/banks interested in KYC details of the customer.",
        "params": {
          "Uname": "Name of the customer.",
          "bankAddress": "Ethereum account of financial institution/bank which has tried to access KYC details of customer."
        },
        "return": "bool True is request is added successfully & false if request already exists."
      },
      "allowBank(string,address,bool)": {
        "details": "Approve/Reject KYC access request for financial institution/bank by customer",
        "params": {
          "Uname": "Name of the customer.",
          "bankAddress": "True if customer approves kyc acess request & false otherwise."
        }
      },
      "checkBank(string,address)": {
        "details": "function to to validate bank log in",
        "params": {
          "Uname": "Name of the Bank",
          "password": "Ethereum account of financial institution/bank"
        },
        "return": "string \"0\" if successful ,  null if fails"
      },
      "checkCustomer(string,string)": {
        "details": "function to validate customer log in",
        "params": {
          "Uname": "Name of the Customer",
          "password": "Password for the customer"
        },
        "return": "book true if successful ,  false if fails"
      },
      "getBankEth(string)": {
        "details": "function to get bank account",
        "params": {
          "uname": "Name of the bank"
        },
        "return": "address account if successful ,  0x14e041521a40e32ed88b22c0f32469f5406d757a if fails"
      },
      "getBankKYC(address)": {
        "details": "function to get bank KYC count ",
        "params": {
          "ethAcc": "Ethereum account of the bank "
        },
        "return": "uint count of KYC if successful, 0 otherwise"
      },
      "getBankName(address)": {
        "details": "function to get bank name",
        "params": {
          "ethAcc": "Ethereum account for the bank"
        },
        "return": "string name if successful ,  null if fails"
      },
      "getBankRating(address)": {
        "details": "function to get bank rating",
        "params": {
          "ethAcc": "Ethereum account of the bank "
        },
        "return": "uint rating of bank "
      },
      "getBankReg(address)": {
        "details": "function to get bank reg number of bank ",
        "params": {
          "ethAcc": "Ethereum account of the bank "
        },
        "return": "string regNumber if successful, null if fails"
      },
      "getBankRequests(string,uint256)": {
        "details": "Not used however kept for reference *"
      },
      "getBankRequests1(string,uint256)": {
        "details": "Get list of all access requests from financial institution/banks interested in KYC details of the customer.",
        "params": {
          "Uname": "Name of the customer.",
          "ind": "iterator sent from ui."
        },
        "return": "address Ethereum account of financial institution/bank for approval/rejection and 0x14e041521a40e32ed88b22c0f32469f5406d757a if not requests are pending."
      },
      "getBankRequestsCount(string,uint256)": {
        "details": "Get the count of KYC access request to be approved by the customer.",
        "params": {
          "Uname": "Name of the customer.",
          "ind": "Currently not used."
        },
        "return": "uint Count of access request pending approval/rejection from client."
      },
      "getBankRequestsDetails(string,uint256)": {
        "details": "Not used however kept for reference *"
      },
      "getCustomerBankName(string)": {
        "details": "function to get bank name of customer ",
        "params": {
          "Uname": "Name of the customer"
        },
        "return": "string name if successful"
      },
      "getCustomerBankRating(string)": {
        "details": "function to get bank rating",
        "params": {
          "Uname": "Name of the customer "
        },
        "return": "uint rating of bank "
      },
      "getCustomerRating(string)": {
        "details": "function to get customer rating",
        "params": {
          "Uname": "Name of the customer "
        },
        "return": "uint rating of customer,0 otherwise "
      },
      "ifAllowed(string,address)": {
        "details": "check if financial institution/bank is authorised by client to view kyc details.",
        "params": {
          "Uname": "Name of the customer.",
          "bankAddress": "Ethereum account for the bank."
        },
        "return": "bool True if allowed and false if not allowed"
      },
      "isPartOfOrg()": {
        "details": "function to check access rights of transaction request sender",
        "return": "true  if successfull, false otherwise "
      },
      "kill()": {
        "details": "function to kill contract"
      },
      "modifyCustomer(string,string)": {
        "details": "function to function to modify a customer profile in database",
        "params": {
          "DataHash": "modified KYC details of cutomer is form of demiliter based string",
          "Uname": "Name of the customer"
        },
        "return": "uint 0 if successfull, 7 if no access rights to transaction request sender,1 if size limit of the database is reached,1 if customer profile not in database"
      },
      "removeBank(address)": {
        "details": "function that removes an organisation from the network",
        "params": {
          "eth": "Ethereum account of financial institution/bank"
        },
        "return": "uint 0 if successfull,7 if no access rights to transaction request sender,1 if organisation to be removed not part of network"
      },
      "removeCustomer(string)": {
        "details": "function to remove fraudulent customer profile from the database",
        "params": {
          "Uname": "Name of the customer"
        },
        "return": "uint 0 if successfull, 7 if no access rights to transaction request sender,1 if size limit of the database is reached,1 if customer profile not in database"
      },
      "setPassword(string,string)": {
        "details": "function to set password for the customer",
        "params": {
          "Uname": "Name of the Customer",
          "password": "Password for the customer"
        },
        "return": "book true if successful ,  false if fails"
      },
      "updateRating(address,bool)": {
        "details": "function to update organisation rating",
        "params": {
          "bankAddress": "Ethereum account of financial institution/bank",
          "ifAdded": "true  indicates a succesfull addition of KYC profile"
        },
        "return": "0 if successful ,  1 if bank is not found"
      },
      "updateRatingCustomer(string,bool)": {
        "details": "function to modify customer rating",
        "params": {
          "Uname": "Name of the customer",
          "ifIncrease": "true if rating needs to be increased or decrease otherwise "
        },
        "return": "0 if successful ,  1 if bank is not found"
      },
      "viewCustomer(string)": {
        "details": "function to return customer profile data",
        "params": {
          "Uname": "Name of the customer"
        },
        "return": "string delimited KYC details of customer if successfull, Access Denied - if no access rights to transaction request sender, customer profile not in database"
      }
    },
    "title": "kyc onboarding contract "
  },
  "userdoc": {
    "methods": {}
  }
}